{
  "_format": "hh-sol-artifact-1",
  "contractName": "WrappedNFT",
  "sourceName": "contracts/WrappedNFT.sol",
  "abi": [
    {
      "inputs": [
        {
          "internalType": "string",
          "name": "tokenName",
          "type": "string"
        },
        {
          "internalType": "string",
          "name": "tokenSymbol",
          "type": "string"
        }
      ],
      "stateMutability": "nonpayable",
      "type": "constructor"
    },
    {
      "inputs": [],
      "name": "ERC721EnumerableForbiddenBatchMint",
      "type": "error"
    },
    {
      "inputs": [
        {
          "internalType": "address",
          "name": "sender",
          "type": "address"
        },
        {
          "internalType": "uint256",
          "name": "tokenId",
          "type": "uint256"
        },
        {
          "internalType": "address",
          "name": "owner",
          "type": "address"
        }
      ],
      "name": "ERC721IncorrectOwner",
      "type": "error"
    },
    {
      "inputs": [
        {
          "internalType": "address",
          "name": "operator",
          "type": "address"
        },
        {
          "internalType": "uint256",
          "name": "tokenId",
          "type": "uint256"
        }
      ],
      "name": "ERC721InsufficientApproval",
      "type": "error"
    },
    {
      "inputs": [
        {
          "internalType": "address",
          "name": "approver",
          "type": "address"
        }
      ],
      "name": "ERC721InvalidApprover",
      "type": "error"
    },
    {
      "inputs": [
        {
          "internalType": "address",
          "name": "operator",
          "type": "address"
        }
      ],
      "name": "ERC721InvalidOperator",
      "type": "error"
    },
    {
      "inputs": [
        {
          "internalType": "address",
          "name": "owner",
          "type": "address"
        }
      ],
      "name": "ERC721InvalidOwner",
      "type": "error"
    },
    {
      "inputs": [
        {
          "internalType": "address",
          "name": "receiver",
          "type": "address"
        }
      ],
      "name": "ERC721InvalidReceiver",
      "type": "error"
    },
    {
      "inputs": [
        {
          "internalType": "address",
          "name": "sender",
          "type": "address"
        }
      ],
      "name": "ERC721InvalidSender",
      "type": "error"
    },
    {
      "inputs": [
        {
          "internalType": "uint256",
          "name": "tokenId",
          "type": "uint256"
        }
      ],
      "name": "ERC721NonexistentToken",
      "type": "error"
    },
    {
      "inputs": [
        {
          "internalType": "address",
          "name": "owner",
          "type": "address"
        },
        {
          "internalType": "uint256",
          "name": "index",
          "type": "uint256"
        }
      ],
      "name": "ERC721OutOfBoundsIndex",
      "type": "error"
    },
    {
      "inputs": [
        {
          "internalType": "address",
          "name": "owner",
          "type": "address"
        }
      ],
      "name": "OwnableInvalidOwner",
      "type": "error"
    },
    {
      "inputs": [
        {
          "internalType": "address",
          "name": "account",
          "type": "address"
        }
      ],
      "name": "OwnableUnauthorizedAccount",
      "type": "error"
    },
    {
      "anonymous": false,
      "inputs": [
        {
          "indexed": true,
          "internalType": "address",
          "name": "owner",
          "type": "address"
        },
        {
          "indexed": true,
          "internalType": "address",
          "name": "approved",
          "type": "address"
        },
        {
          "indexed": true,
          "internalType": "uint256",
          "name": "tokenId",
          "type": "uint256"
        }
      ],
      "name": "Approval",
      "type": "event"
    },
    {
      "anonymous": false,
      "inputs": [
        {
          "indexed": true,
          "internalType": "address",
          "name": "owner",
          "type": "address"
        },
        {
          "indexed": true,
          "internalType": "address",
          "name": "operator",
          "type": "address"
        },
        {
          "indexed": false,
          "internalType": "bool",
          "name": "approved",
          "type": "bool"
        }
      ],
      "name": "ApprovalForAll",
      "type": "event"
    },
    {
      "anonymous": false,
      "inputs": [
        {
          "indexed": false,
          "internalType": "uint256",
          "name": "_fromTokenId",
          "type": "uint256"
        },
        {
          "indexed": false,
          "internalType": "uint256",
          "name": "_toTokenId",
          "type": "uint256"
        }
      ],
      "name": "BatchMetadataUpdate",
      "type": "event"
    },
    {
      "anonymous": false,
      "inputs": [
        {
          "indexed": false,
          "internalType": "uint256",
          "name": "_tokenId",
          "type": "uint256"
        }
      ],
      "name": "MetadataUpdate",
      "type": "event"
    },
    {
      "anonymous": false,
      "inputs": [
        {
          "indexed": true,
          "internalType": "address",
          "name": "previousOwner",
          "type": "address"
        },
        {
          "indexed": true,
          "internalType": "address",
          "name": "newOwner",
          "type": "address"
        }
      ],
      "name": "OwnershipTransferred",
      "type": "event"
    },
    {
      "anonymous": false,
      "inputs": [
        {
          "indexed": true,
          "internalType": "address",
          "name": "from",
          "type": "address"
        },
        {
          "indexed": true,
          "internalType": "address",
          "name": "to",
          "type": "address"
        },
        {
          "indexed": true,
          "internalType": "uint256",
          "name": "tokenId",
          "type": "uint256"
        }
      ],
      "name": "Transfer",
      "type": "event"
    },
    {
      "inputs": [],
      "name": "METADATA_URI",
      "outputs": [
        {
          "internalType": "string",
          "name": "",
          "type": "string"
        }
      ],
      "stateMutability": "view",
      "type": "function"
    },
    {
      "inputs": [
        {
          "internalType": "address",
          "name": "to",
          "type": "address"
        },
        {
          "internalType": "uint256",
          "name": "tokenId",
          "type": "uint256"
        }
      ],
      "name": "approve",
      "outputs": [],
      "stateMutability": "nonpayable",
      "type": "function"
    },
    {
      "inputs": [
        {
          "internalType": "address",
          "name": "owner",
          "type": "address"
        }
      ],
      "name": "balanceOf",
      "outputs": [
        {
          "internalType": "uint256",
          "name": "",
          "type": "uint256"
        }
      ],
      "stateMutability": "view",
      "type": "function"
    },
    {
      "inputs": [
        {
          "internalType": "uint256",
          "name": "tokenId",
          "type": "uint256"
        }
      ],
      "name": "burn",
      "outputs": [],
      "stateMutability": "nonpayable",
      "type": "function"
    },
    {
      "inputs": [
        {
          "internalType": "uint256",
          "name": "tokenId",
          "type": "uint256"
        }
      ],
      "name": "getApproved",
      "outputs": [
        {
          "internalType": "address",
          "name": "",
          "type": "address"
        }
      ],
      "stateMutability": "view",
      "type": "function"
    },
    {
      "inputs": [
        {
          "internalType": "address",
          "name": "owner",
          "type": "address"
        },
        {
          "internalType": "address",
          "name": "operator",
          "type": "address"
        }
      ],
      "name": "isApprovedForAll",
      "outputs": [
        {
          "internalType": "bool",
          "name": "",
          "type": "bool"
        }
      ],
      "stateMutability": "view",
      "type": "function"
    },
    {
      "inputs": [
        {
          "internalType": "address",
          "name": "to",
          "type": "address"
        },
        {
          "internalType": "uint256",
          "name": "_tokenId",
          "type": "uint256"
        }
      ],
      "name": "mintWithSpecificTokenId",
      "outputs": [],
      "stateMutability": "nonpayable",
      "type": "function"
    },
    {
      "inputs": [],
      "name": "name",
      "outputs": [
        {
          "internalType": "string",
          "name": "",
          "type": "string"
        }
      ],
      "stateMutability": "view",
      "type": "function"
    },
    {
      "inputs": [],
      "name": "owner",
      "outputs": [
        {
          "internalType": "address",
          "name": "",
          "type": "address"
        }
      ],
      "stateMutability": "view",
      "type": "function"
    },
    {
      "inputs": [
        {
          "internalType": "uint256",
          "name": "tokenId",
          "type": "uint256"
        }
      ],
      "name": "ownerOf",
      "outputs": [
        {
          "internalType": "address",
          "name": "",
          "type": "address"
        }
      ],
      "stateMutability": "view",
      "type": "function"
    },
    {
      "inputs": [],
      "name": "renounceOwnership",
      "outputs": [],
      "stateMutability": "nonpayable",
      "type": "function"
    },
    {
      "inputs": [
        {
          "internalType": "address",
          "name": "to",
          "type": "address"
        }
      ],
      "name": "safeMint",
      "outputs": [],
      "stateMutability": "nonpayable",
      "type": "function"
    },
    {
      "inputs": [
        {
          "internalType": "address",
          "name": "from",
          "type": "address"
        },
        {
          "internalType": "address",
          "name": "to",
          "type": "address"
        },
        {
          "internalType": "uint256",
          "name": "tokenId",
          "type": "uint256"
        }
      ],
      "name": "safeTransferFrom",
      "outputs": [],
      "stateMutability": "nonpayable",
      "type": "function"
    },
    {
      "inputs": [
        {
          "internalType": "address",
          "name": "from",
          "type": "address"
        },
        {
          "internalType": "address",
          "name": "to",
          "type": "address"
        },
        {
          "internalType": "uint256",
          "name": "tokenId",
          "type": "uint256"
        },
        {
          "internalType": "bytes",
          "name": "data",
          "type": "bytes"
        }
      ],
      "name": "safeTransferFrom",
      "outputs": [],
      "stateMutability": "nonpayable",
      "type": "function"
    },
    {
      "inputs": [
        {
          "internalType": "address",
          "name": "operator",
          "type": "address"
        },
        {
          "internalType": "bool",
          "name": "approved",
          "type": "bool"
        }
      ],
      "name": "setApprovalForAll",
      "outputs": [],
      "stateMutability": "nonpayable",
      "type": "function"
    },
    {
      "inputs": [
        {
          "internalType": "bytes4",
          "name": "interfaceId",
          "type": "bytes4"
        }
      ],
      "name": "supportsInterface",
      "outputs": [
        {
          "internalType": "bool",
          "name": "",
          "type": "bool"
        }
      ],
      "stateMutability": "view",
      "type": "function"
    },
    {
      "inputs": [],
      "name": "symbol",
      "outputs": [
        {
          "internalType": "string",
          "name": "",
          "type": "string"
        }
      ],
      "stateMutability": "view",
      "type": "function"
    },
    {
      "inputs": [
        {
          "internalType": "uint256",
          "name": "index",
          "type": "uint256"
        }
      ],
      "name": "tokenByIndex",
      "outputs": [
        {
          "internalType": "uint256",
          "name": "",
          "type": "uint256"
        }
      ],
      "stateMutability": "view",
      "type": "function"
    },
    {
      "inputs": [
        {
          "internalType": "address",
          "name": "owner",
          "type": "address"
        },
        {
          "internalType": "uint256",
          "name": "index",
          "type": "uint256"
        }
      ],
      "name": "tokenOfOwnerByIndex",
      "outputs": [
        {
          "internalType": "uint256",
          "name": "",
          "type": "uint256"
        }
      ],
      "stateMutability": "view",
      "type": "function"
    },
    {
      "inputs": [
        {
          "internalType": "uint256",
          "name": "tokenId",
          "type": "uint256"
        }
      ],
      "name": "tokenURI",
      "outputs": [
        {
          "internalType": "string",
          "name": "",
          "type": "string"
        }
      ],
      "stateMutability": "view",
      "type": "function"
    },
    {
      "inputs": [],
      "name": "totalSupply",
      "outputs": [
        {
          "internalType": "uint256",
          "name": "",
          "type": "uint256"
        }
      ],
      "stateMutability": "view",
      "type": "function"
    },
    {
      "inputs": [
        {
          "internalType": "address",
          "name": "from",
          "type": "address"
        },
        {
          "internalType": "address",
          "name": "to",
          "type": "address"
        },
        {
          "internalType": "uint256",
          "name": "tokenId",
          "type": "uint256"
        }
      ],
      "name": "transferFrom",
      "outputs": [],
      "stateMutability": "nonpayable",
      "type": "function"
    },
    {
      "inputs": [
        {
          "internalType": "address",
          "name": "newOwner",
          "type": "address"
        }
      ],
      "name": "transferOwnership",
      "outputs": [],
      "stateMutability": "nonpayable",
      "type": "function"
    }
  ],
  "bytecode": "0x608060405234801561001057600080fd5b506040516134163803806134168339818101604052810190610032919061031f565b8181338282816000908161004691906105b8565b50806001908161005691906105b8565b505050600073ffffffffffffffffffffffffffffffffffffffff168173ffffffffffffffffffffffffffffffffffffffff16036100cb5760006040517f1e4fbdf70000000000000000000000000000000000000000000000000000000081526004016100c291906106cb565b60405180910390fd5b6100da816100e460201b60201c565b50505050506106e6565b6000600b60009054906101000a900473ffffffffffffffffffffffffffffffffffffffff16905081600b60006101000a81548173ffffffffffffffffffffffffffffffffffffffff021916908373ffffffffffffffffffffffffffffffffffffffff1602179055508173ffffffffffffffffffffffffffffffffffffffff168173ffffffffffffffffffffffffffffffffffffffff167f8be0079c531659141344cd1fd0a4f28419497f9722a3daafe3b4186f6b6457e060405160405180910390a35050565b6000604051905090565b600080fd5b600080fd5b600080fd5b600080fd5b6000601f19601f8301169050919050565b7f4e487b7100000000000000000000000000000000000000000000000000000000600052604160045260246000fd5b610211826101c8565b810181811067ffffffffffffffff821117156102305761022f6101d9565b5b80604052505050565b60006102436101aa565b905061024f8282610208565b919050565b600067ffffffffffffffff82111561026f5761026e6101d9565b5b610278826101c8565b9050602081019050919050565b60005b838110156102a3578082015181840152602081019050610288565b60008484015250505050565b60006102c26102bd84610254565b610239565b9050828152602081018484840111156102de576102dd6101c3565b5b6102e9848285610285565b509392505050565b600082601f830112610306576103056101be565b5b81516103168482602086016102af565b91505092915050565b60008060408385031215610336576103356101b4565b5b600083015167ffffffffffffffff811115610354576103536101b9565b5b610360858286016102f1565b925050602083015167ffffffffffffffff811115610381576103806101b9565b5b61038d858286016102f1565b9150509250929050565b600081519050919050565b7f4e487b7100000000000000000000000000000000000000000000000000000000600052602260045260246000fd5b600060028204905060018216806103e957607f821691505b6020821081036103fc576103fb6103a2565b5b50919050565b60008190508160005260206000209050919050565b60006020601f8301049050919050565b600082821b905092915050565b6000600883026104647fffffffffffffffffffffffffffffffffffffffffffffffffffffffffffffffff82610427565b61046e8683610427565b95508019841693508086168417925050509392505050565b6000819050919050565b6000819050919050565b60006104b56104b06104ab84610486565b610490565b610486565b9050919050565b6000819050919050565b6104cf8361049a565b6104e36104db826104bc565b848454610434565b825550505050565b600090565b6104f86104eb565b6105038184846104c6565b505050565b5b818110156105275761051c6000826104f0565b600181019050610509565b5050565b601f82111561056c5761053d81610402565b61054684610417565b81016020851015610555578190505b61056961056185610417565b830182610508565b50505b505050565b600082821c905092915050565b600061058f60001984600802610571565b1980831691505092915050565b60006105a8838361057e565b9150826002028217905092915050565b6105c182610397565b67ffffffffffffffff8111156105da576105d96101d9565b5b6105e482546103d1565b6105ef82828561052b565b600060209050601f8311600181146106225760008415610610578287015190505b61061a858261059c565b865550610682565b601f19841661063086610402565b60005b8281101561065857848901518255600182019150602085019450602081019050610633565b868310156106755784890151610671601f89168261057e565b8355505b6001600288020188555050505b505050505050565b600073ffffffffffffffffffffffffffffffffffffffff82169050919050565b60006106b58261068a565b9050919050565b6106c5816106aa565b82525050565b60006020820190506106e060008301846106bc565b92915050565b612d21806106f56000396000f3fe608060405234801561001057600080fd5b506004361061014d5760003560e01c80634f6ccce7116100c3578063a22cb4651161007c578063a22cb4651461039c578063b88d4fde146103b8578063c020a547146103d4578063c87b56dd146103f2578063e985e9c514610422578063f2fde38b146104525761014d565b80634f6ccce7146102c65780636352211e146102f657806370a0823114610326578063715018a6146103565780638da5cb5b1461036057806395d89b411461037e5761014d565b806323b872dd1161011557806323b872dd1461020a5780632f745c591461022657806330b2c5961461025657806340d097c31461027257806342842e0e1461028e57806342966c68146102aa5761014d565b806301ffc9a71461015257806306fdde0314610182578063081812fc146101a0578063095ea7b3146101d057806318160ddd146101ec575b600080fd5b61016c600480360381019061016791906121af565b61046e565b60405161017991906121f7565b60405180910390f35b61018a610480565b60405161019791906122a2565b60405180910390f35b6101ba60048036038101906101b591906122fa565b610512565b6040516101c79190612368565b60405180910390f35b6101ea60048036038101906101e591906123af565b61052e565b005b6101f4610544565b60405161020191906123fe565b60405180910390f35b610224600480360381019061021f9190612419565b610551565b005b610240600480360381019061023b91906123af565b610653565b60405161024d91906123fe565b60405180910390f35b610270600480360381019061026b91906123af565b6106fc565b005b61028c6004803603810190610287919061246c565b61070a565b005b6102a860048036038101906102a39190612419565b610755565b005b6102c460048036038101906102bf91906122fa565b610775565b005b6102e060048036038101906102db91906122fa565b61078c565b6040516102ed91906123fe565b60405180910390f35b610310600480360381019061030b91906122fa565b610802565b60405161031d9190612368565b60405180910390f35b610340600480360381019061033b919061246c565b610814565b60405161034d91906123fe565b60405180910390f35b61035e6108ce565b005b6103686108e2565b6040516103759190612368565b60405180910390f35b61038661090c565b60405161039391906122a2565b60405180910390f35b6103b660048036038101906103b191906124c5565b61099e565b005b6103d260048036038101906103cd919061263a565b6109b4565b005b6103dc6109d9565b6040516103e991906122a2565b60405180910390f35b61040c600480360381019061040791906122fa565b6109f5565b60405161041991906122a2565b60405180910390f35b61043c600480360381019061043791906126bd565b610a07565b60405161044991906121f7565b60405180910390f35b61046c6004803603810190610467919061246c565b610a9b565b005b600061047982610b21565b9050919050565b60606000805461048f9061272c565b80601f01602080910402602001604051908101604052809291908181526020018280546104bb9061272c565b80156105085780601f106104dd57610100808354040283529160200191610508565b820191906000526020600020905b8154815290600101906020018083116104eb57829003601f168201915b5050505050905090565b600061051d82610b82565b5061052782610c0a565b9050919050565b610540828261053b610c47565b610c4f565b5050565b6000600880549050905090565b600073ffffffffffffffffffffffffffffffffffffffff168273ffffffffffffffffffffffffffffffffffffffff16036105c35760006040517f64a0ae920000000000000000000000000000000000000000000000000000000081526004016105ba9190612368565b60405180910390fd5b60006105d783836105d2610c47565b610c61565b90508373ffffffffffffffffffffffffffffffffffffffff168173ffffffffffffffffffffffffffffffffffffffff161461064d578382826040517f64283d7b0000000000000000000000000000000000000000000000000000000081526004016106449392919061275d565b60405180910390fd5b50505050565b600061065e83610814565b82106106a35782826040517fa57d13dc00000000000000000000000000000000000000000000000000000000815260040161069a929190612794565b60405180910390fd5b600660008473ffffffffffffffffffffffffffffffffffffffff1673ffffffffffffffffffffffffffffffffffffffff168152602001908152602001600020600083815260200190815260200160002054905092915050565b6107068282610c77565b5050565b6000600c600081548092919061071f906127ec565b91905055905061072f8282610c77565b61075181604051806060016040528060358152602001612cb760359139610c95565b5050565b610770838383604051806020016040528060008152506109b4565b505050565b610788600082610783610c47565b610c61565b5050565b6000610796610544565b82106107dc576000826040517fa57d13dc0000000000000000000000000000000000000000000000000000000081526004016107d3929190612794565b60405180910390fd5b600882815481106107f0576107ef612834565b5b90600052602060002001549050919050565b600061080d82610b82565b9050919050565b60008073ffffffffffffffffffffffffffffffffffffffff168273ffffffffffffffffffffffffffffffffffffffff16036108875760006040517f89c62b6400000000000000000000000000000000000000000000000000000000815260040161087e9190612368565b60405180910390fd5b600360008373ffffffffffffffffffffffffffffffffffffffff1673ffffffffffffffffffffffffffffffffffffffff168152602001908152602001600020549050919050565b6108d6610cf1565b6108e06000610d78565b565b6000600b60009054906101000a900473ffffffffffffffffffffffffffffffffffffffff16905090565b60606001805461091b9061272c565b80601f01602080910402602001604051908101604052809291908181526020018280546109479061272c565b80156109945780601f1061096957610100808354040283529160200191610994565b820191906000526020600020905b81548152906001019060200180831161097757829003601f168201915b5050505050905090565b6109b06109a9610c47565b8383610e3e565b5050565b6109bf848484610551565b6109d36109ca610c47565b85858585610fad565b50505050565b604051806060016040528060358152602001612cb76035913981565b6060610a008261115e565b9050919050565b6000600560008473ffffffffffffffffffffffffffffffffffffffff1673ffffffffffffffffffffffffffffffffffffffff16815260200190815260200160002060008373ffffffffffffffffffffffffffffffffffffffff1673ffffffffffffffffffffffffffffffffffffffff16815260200190815260200160002060009054906101000a900460ff16905092915050565b610aa3610cf1565b600073ffffffffffffffffffffffffffffffffffffffff168173ffffffffffffffffffffffffffffffffffffffff1603610b155760006040517f1e4fbdf7000000000000000000000000000000000000000000000000000000008152600401610b0c9190612368565b60405180910390fd5b610b1e81610d78565b50565b6000634906490660e01b7bffffffffffffffffffffffffffffffffffffffffffffffffffffffff1916827bffffffffffffffffffffffffffffffffffffffffffffffffffffffff19161480610b7b5750610b7a82611271565b5b9050919050565b600080610b8e836112eb565b9050600073ffffffffffffffffffffffffffffffffffffffff168173ffffffffffffffffffffffffffffffffffffffff1603610c0157826040517f7e273289000000000000000000000000000000000000000000000000000000008152600401610bf891906123fe565b60405180910390fd5b80915050919050565b60006004600083815260200190815260200160002060009054906101000a900473ffffffffffffffffffffffffffffffffffffffff169050919050565b600033905090565b610c5c8383836001611328565b505050565b6000610c6e8484846114ed565b90509392505050565b610c9182826040518060200160405280600081525061160a565b5050565b80600a60008481526020019081526020016000209081610cb59190612a0f565b507ff8e1a15aba9398e019f0b49df1a4fde98ee17ae345cb5f6b5e2c27f5033e8ce782604051610ce591906123fe565b60405180910390a15050565b610cf9610c47565b73ffffffffffffffffffffffffffffffffffffffff16610d176108e2565b73ffffffffffffffffffffffffffffffffffffffff1614610d7657610d3a610c47565b6040517f118cdaa7000000000000000000000000000000000000000000000000000000008152600401610d6d9190612368565b60405180910390fd5b565b6000600b60009054906101000a900473ffffffffffffffffffffffffffffffffffffffff16905081600b60006101000a81548173ffffffffffffffffffffffffffffffffffffffff021916908373ffffffffffffffffffffffffffffffffffffffff1602179055508173ffffffffffffffffffffffffffffffffffffffff168173ffffffffffffffffffffffffffffffffffffffff167f8be0079c531659141344cd1fd0a4f28419497f9722a3daafe3b4186f6b6457e060405160405180910390a35050565b600073ffffffffffffffffffffffffffffffffffffffff168273ffffffffffffffffffffffffffffffffffffffff1603610eaf57816040517f5b08ba18000000000000000000000000000000000000000000000000000000008152600401610ea69190612368565b60405180910390fd5b80600560008573ffffffffffffffffffffffffffffffffffffffff1673ffffffffffffffffffffffffffffffffffffffff16815260200190815260200160002060008473ffffffffffffffffffffffffffffffffffffffff1673ffffffffffffffffffffffffffffffffffffffff16815260200190815260200160002060006101000a81548160ff0219169083151502179055508173ffffffffffffffffffffffffffffffffffffffff168373ffffffffffffffffffffffffffffffffffffffff167f17307eab39ab6107e8899845ad3d59bd9653f200f220920489ca2b5937696c3183604051610fa091906121f7565b60405180910390a3505050565b60008373ffffffffffffffffffffffffffffffffffffffff163b1115611157578273ffffffffffffffffffffffffffffffffffffffff1663150b7a02868685856040518563ffffffff1660e01b815260040161100c9493929190612b36565b6020604051808303816000875af192505050801561104857506040513d601f19601f820116820180604052508101906110459190612b97565b60015b6110cc573d8060008114611078576040519150601f19603f3d011682016040523d82523d6000602084013e61107d565b606091505b5060008151036110c457836040517f64a0ae920000000000000000000000000000000000000000000000000000000081526004016110bb9190612368565b60405180910390fd5b805181602001fd5b63150b7a0260e01b7bffffffffffffffffffffffffffffffffffffffffffffffffffffffff1916817bffffffffffffffffffffffffffffffffffffffffffffffffffffffff19161461115557836040517f64a0ae9200000000000000000000000000000000000000000000000000000000815260040161114c9190612368565b60405180910390fd5b505b5050505050565b606061116982610b82565b506000600a6000848152602001908152602001600020805461118a9061272c565b80601f01602080910402602001604051908101604052809291908181526020018280546111b69061272c565b80156112035780601f106111d857610100808354040283529160200191611203565b820191906000526020600020905b8154815290600101906020018083116111e657829003601f168201915b50505050509050600061121461162e565b9050600081510361122957819250505061126c565b60008251111561125e578082604051602001611246929190612c00565b6040516020818303038152906040529250505061126c565b61126784611645565b925050505b919050565b60007f780e9d63000000000000000000000000000000000000000000000000000000007bffffffffffffffffffffffffffffffffffffffffffffffffffffffff1916827bffffffffffffffffffffffffffffffffffffffffffffffffffffffff191614806112e457506112e3826116ae565b5b9050919050565b60006002600083815260200190815260200160002060009054906101000a900473ffffffffffffffffffffffffffffffffffffffff169050919050565b80806113615750600073ffffffffffffffffffffffffffffffffffffffff168273ffffffffffffffffffffffffffffffffffffffff1614155b1561149557600061137184610b82565b9050600073ffffffffffffffffffffffffffffffffffffffff168373ffffffffffffffffffffffffffffffffffffffff16141580156113dc57508273ffffffffffffffffffffffffffffffffffffffff168173ffffffffffffffffffffffffffffffffffffffff1614155b80156113ef57506113ed8184610a07565b155b1561143157826040517fa9fbf51f0000000000000000000000000000000000000000000000000000000081526004016114289190612368565b60405180910390fd5b811561149357838573ffffffffffffffffffffffffffffffffffffffff168273ffffffffffffffffffffffffffffffffffffffff167f8c5be1e5ebec7d5bd14f71427d1e84f3dd0314c0f7b2291e5b200ac8c7c3b92560405160405180910390a45b505b836004600085815260200190815260200160002060006101000a81548173ffffffffffffffffffffffffffffffffffffffff021916908373ffffffffffffffffffffffffffffffffffffffff16021790555050505050565b6000806114fb858585611790565b9050600073ffffffffffffffffffffffffffffffffffffffff168173ffffffffffffffffffffffffffffffffffffffff160361153f5761153a846119aa565b61157e565b8473ffffffffffffffffffffffffffffffffffffffff168173ffffffffffffffffffffffffffffffffffffffff161461157d5761157c81856119f3565b5b5b600073ffffffffffffffffffffffffffffffffffffffff168573ffffffffffffffffffffffffffffffffffffffff16036115c0576115bb84611ade565b6115ff565b8473ffffffffffffffffffffffffffffffffffffffff168173ffffffffffffffffffffffffffffffffffffffff16146115fe576115fd8585611baf565b5b5b809150509392505050565b6116148383611c3a565b61162961161f610c47565b6000858585610fad565b505050565b606060405180602001604052806000815250905090565b606061165082610b82565b50600061165b61162e565b9050600081511161167b57604051806020016040528060008152506116a6565b8061168584611d33565b604051602001611696929190612c00565b6040516020818303038152906040525b915050919050565b60007f80ac58cd000000000000000000000000000000000000000000000000000000007bffffffffffffffffffffffffffffffffffffffffffffffffffffffff1916827bffffffffffffffffffffffffffffffffffffffffffffffffffffffff1916148061177957507f5b5e139f000000000000000000000000000000000000000000000000000000007bffffffffffffffffffffffffffffffffffffffffffffffffffffffff1916827bffffffffffffffffffffffffffffffffffffffffffffffffffffffff1916145b80611789575061178882611e01565b5b9050919050565b60008061179c846112eb565b9050600073ffffffffffffffffffffffffffffffffffffffff168373ffffffffffffffffffffffffffffffffffffffff16146117de576117dd818486611e6b565b5b600073ffffffffffffffffffffffffffffffffffffffff168173ffffffffffffffffffffffffffffffffffffffff161461186f57611820600085600080611328565b6001600360008373ffffffffffffffffffffffffffffffffffffffff1673ffffffffffffffffffffffffffffffffffffffff168152602001908152602001600020600082825403925050819055505b600073ffffffffffffffffffffffffffffffffffffffff168573ffffffffffffffffffffffffffffffffffffffff16146118f2576001600360008773ffffffffffffffffffffffffffffffffffffffff1673ffffffffffffffffffffffffffffffffffffffff168152602001908152602001600020600082825401925050819055505b846002600086815260200190815260200160002060006101000a81548173ffffffffffffffffffffffffffffffffffffffff021916908373ffffffffffffffffffffffffffffffffffffffff160217905550838573ffffffffffffffffffffffffffffffffffffffff168273ffffffffffffffffffffffffffffffffffffffff167fddf252ad1be2c89b69c2b068fc378daa952ba7f163c4a11628f55a4df523b3ef60405160405180910390a4809150509392505050565b6008805490506009600083815260200190815260200160002081905550600881908060018154018082558091505060019003906000526020600020016000909190919091505550565b60006119fe83610814565b90506000600760008481526020019081526020016000205490506000600660008673ffffffffffffffffffffffffffffffffffffffff1673ffffffffffffffffffffffffffffffffffffffff1681526020019081526020016000209050828214611aaa5760008160008581526020019081526020016000205490508082600085815260200190815260200160002081905550826007600083815260200190815260200160002081905550505b6007600085815260200190815260200160002060009055806000848152602001908152602001600020600090555050505050565b60006001600880549050611af29190612c24565b9050600060096000848152602001908152602001600020549050600060088381548110611b2257611b21612834565b5b906000526020600020015490508060088381548110611b4457611b43612834565b5b906000526020600020018190555081600960008381526020019081526020016000208190555060096000858152602001908152602001600020600090556008805480611b9357611b92612c58565b5b6001900381819060005260206000200160009055905550505050565b60006001611bbc84610814565b611bc69190612c24565b905081600660008573ffffffffffffffffffffffffffffffffffffffff1673ffffffffffffffffffffffffffffffffffffffff168152602001908152602001600020600083815260200190815260200160002081905550806007600084815260200190815260200160002081905550505050565b600073ffffffffffffffffffffffffffffffffffffffff168273ffffffffffffffffffffffffffffffffffffffff1603611cac5760006040517f64a0ae92000000000000000000000000000000000000000000000000000000008152600401611ca39190612368565b60405180910390fd5b6000611cba83836000610c61565b9050600073ffffffffffffffffffffffffffffffffffffffff168173ffffffffffffffffffffffffffffffffffffffff1614611d2e5760006040517f73c6ac6e000000000000000000000000000000000000000000000000000000008152600401611d259190612368565b60405180910390fd5b505050565b606060006001611d4284611f2f565b01905060008167ffffffffffffffff811115611d6157611d6061250f565b5b6040519080825280601f01601f191660200182016040528015611d935781602001600182028036833780820191505090505b509050600082602001820190505b600115611df6578080600190039150507f3031323334353637383961626364656600000000000000000000000000000000600a86061a8153600a8581611dea57611de9612c87565b5b04945060008503611da1575b819350505050919050565b60007f01ffc9a7000000000000000000000000000000000000000000000000000000007bffffffffffffffffffffffffffffffffffffffffffffffffffffffff1916827bffffffffffffffffffffffffffffffffffffffffffffffffffffffff1916149050919050565b611e76838383612082565b611f2a57600073ffffffffffffffffffffffffffffffffffffffff168373ffffffffffffffffffffffffffffffffffffffff1603611eeb57806040517f7e273289000000000000000000000000000000000000000000000000000000008152600401611ee291906123fe565b60405180910390fd5b81816040517f177e802f000000000000000000000000000000000000000000000000000000008152600401611f21929190612794565b60405180910390fd5b505050565b600080600090507a184f03e93ff9f4daa797ed6e38ed64bf6a1f0100000000000000008310611f8d577a184f03e93ff9f4daa797ed6e38ed64bf6a1f0100000000000000008381611f8357611f82612c87565b5b0492506040810190505b6d04ee2d6d415b85acef81000000008310611fca576d04ee2d6d415b85acef81000000008381611fc057611fbf612c87565b5b0492506020810190505b662386f26fc100008310611ff957662386f26fc100008381611fef57611fee612c87565b5b0492506010810190505b6305f5e1008310612022576305f5e100838161201857612017612c87565b5b0492506008810190505b612710831061204757612710838161203d5761203c612c87565b5b0492506004810190505b6064831061206a57606483816120605761205f612c87565b5b0492506002810190505b600a8310612079576001810190505b80915050919050565b60008073ffffffffffffffffffffffffffffffffffffffff168373ffffffffffffffffffffffffffffffffffffffff161415801561213a57508273ffffffffffffffffffffffffffffffffffffffff168473ffffffffffffffffffffffffffffffffffffffff1614806120fb57506120fa8484610a07565b5b8061213957508273ffffffffffffffffffffffffffffffffffffffff1661212183610c0a565b73ffffffffffffffffffffffffffffffffffffffff16145b5b90509392505050565b6000604051905090565b600080fd5b600080fd5b60007fffffffff0000000000000000000000000000000000000000000000000000000082169050919050565b61218c81612157565b811461219757600080fd5b50565b6000813590506121a981612183565b92915050565b6000602082840312156121c5576121c461214d565b5b60006121d38482850161219a565b91505092915050565b60008115159050919050565b6121f1816121dc565b82525050565b600060208201905061220c60008301846121e8565b92915050565b600081519050919050565b600082825260208201905092915050565b60005b8381101561224c578082015181840152602081019050612231565b60008484015250505050565b6000601f19601f8301169050919050565b600061227482612212565b61227e818561221d565b935061228e81856020860161222e565b61229781612258565b840191505092915050565b600060208201905081810360008301526122bc8184612269565b905092915050565b6000819050919050565b6122d7816122c4565b81146122e257600080fd5b50565b6000813590506122f4816122ce565b92915050565b6000602082840312156123105761230f61214d565b5b600061231e848285016122e5565b91505092915050565b600073ffffffffffffffffffffffffffffffffffffffff82169050919050565b600061235282612327565b9050919050565b61236281612347565b82525050565b600060208201905061237d6000830184612359565b92915050565b61238c81612347565b811461239757600080fd5b50565b6000813590506123a981612383565b92915050565b600080604083850312156123c6576123c561214d565b5b60006123d48582860161239a565b92505060206123e5858286016122e5565b9150509250929050565b6123f8816122c4565b82525050565b600060208201905061241360008301846123ef565b92915050565b6000806000606084860312156124325761243161214d565b5b60006124408682870161239a565b93505060206124518682870161239a565b9250506040612462868287016122e5565b9150509250925092565b6000602082840312156124825761248161214d565b5b60006124908482850161239a565b91505092915050565b6124a2816121dc565b81146124ad57600080fd5b50565b6000813590506124bf81612499565b92915050565b600080604083850312156124dc576124db61214d565b5b60006124ea8582860161239a565b92505060206124fb858286016124b0565b9150509250929050565b600080fd5b600080fd5b7f4e487b7100000000000000000000000000000000000000000000000000000000600052604160045260246000fd5b61254782612258565b810181811067ffffffffffffffff821117156125665761256561250f565b5b80604052505050565b6000612579612143565b9050612585828261253e565b919050565b600067ffffffffffffffff8211156125a5576125a461250f565b5b6125ae82612258565b9050602081019050919050565b82818337600083830152505050565b60006125dd6125d88461258a565b61256f565b9050828152602081018484840111156125f9576125f861250a565b5b6126048482856125bb565b509392505050565b600082601f83011261262157612620612505565b5b81356126318482602086016125ca565b91505092915050565b600080600080608085870312156126545761265361214d565b5b60006126628782880161239a565b94505060206126738782880161239a565b9350506040612684878288016122e5565b925050606085013567ffffffffffffffff8111156126a5576126a4612152565b5b6126b18782880161260c565b91505092959194509250565b600080604083850312156126d4576126d361214d565b5b60006126e28582860161239a565b92505060206126f38582860161239a565b9150509250929050565b7f4e487b7100000000000000000000000000000000000000000000000000000000600052602260045260246000fd5b6000600282049050600182168061274457607f821691505b602082108103612757576127566126fd565b5b50919050565b60006060820190506127726000830186612359565b61277f60208301856123ef565b61278c6040830184612359565b949350505050565b60006040820190506127a96000830185612359565b6127b660208301846123ef565b9392505050565b7f4e487b7100000000000000000000000000000000000000000000000000000000600052601160045260246000fd5b60006127f7826122c4565b91507fffffffffffffffffffffffffffffffffffffffffffffffffffffffffffffffff8203612829576128286127bd565b5b600182019050919050565b7f4e487b7100000000000000000000000000000000000000000000000000000000600052603260045260246000fd5b60008190508160005260206000209050919050565b60006020601f8301049050919050565b600082821b905092915050565b6000600883026128c57fffffffffffffffffffffffffffffffffffffffffffffffffffffffffffffffff82612888565b6128cf8683612888565b95508019841693508086168417925050509392505050565b6000819050919050565b600061290c612907612902846122c4565b6128e7565b6122c4565b9050919050565b6000819050919050565b612926836128f1565b61293a61293282612913565b848454612895565b825550505050565b600090565b61294f612942565b61295a81848461291d565b505050565b5b8181101561297e57612973600082612947565b600181019050612960565b5050565b601f8211156129c35761299481612863565b61299d84612878565b810160208510156129ac578190505b6129c06129b885612878565b83018261295f565b50505b505050565b600082821c905092915050565b60006129e6600019846008026129c8565b1980831691505092915050565b60006129ff83836129d5565b9150826002028217905092915050565b612a1882612212565b67ffffffffffffffff811115612a3157612a3061250f565b5b612a3b825461272c565b612a46828285612982565b600060209050601f831160018114612a795760008415612a67578287015190505b612a7185826129f3565b865550612ad9565b601f198416612a8786612863565b60005b82811015612aaf57848901518255600182019150602085019450602081019050612a8a565b86831015612acc5784890151612ac8601f8916826129d5565b8355505b6001600288020188555050505b505050505050565b600081519050919050565b600082825260208201905092915050565b6000612b0882612ae1565b612b128185612aec565b9350612b2281856020860161222e565b612b2b81612258565b840191505092915050565b6000608082019050612b4b6000830187612359565b612b586020830186612359565b612b6560408301856123ef565b8181036060830152612b778184612afd565b905095945050505050565b600081519050612b9181612183565b92915050565b600060208284031215612bad57612bac61214d565b5b6000612bbb84828501612b82565b91505092915050565b600081905092915050565b6000612bda82612212565b612be48185612bc4565b9350612bf481856020860161222e565b80840191505092915050565b6000612c0c8285612bcf565b9150612c188284612bcf565b91508190509392505050565b6000612c2f826122c4565b9150612c3a836122c4565b9250828203905081811115612c5257612c516127bd565b5b92915050565b7f4e487b7100000000000000000000000000000000000000000000000000000000600052603160045260246000fd5b7f4e487b7100000000000000000000000000000000000000000000000000000000600052601260045260246000fdfe697066733a2f2f516d61526d5a33634347443146645250346a70467261636d4165334b4a4159526b465a3769765175523333545546a264697066735822122009e6b341dc3dda73b6b81acd6f8a04af973533c3d6162fece2dda6e34252737664736f6c634300081c0033",
  "linkReferences": {},
  "deployedLinkReferences": {}
}