{
  "_format": "hh-sol-artifact-1",
  "contractName": "NFTPoolLockAndRelease",
  "sourceName": "contracts/NFTPoolLockAndRelease.sol",
  "abi": [
    {
      "inputs": [
        {
          "internalType": "address",
          "name": "_router",
          "type": "address"
        },
        {
          "internalType": "address",
          "name": "_link",
          "type": "address"
        },
        {
          "internalType": "address",
          "name": "nftAddr",
          "type": "address"
        }
      ],
      "stateMutability": "nonpayable",
      "type": "constructor"
    },
    {
      "inputs": [
        {
          "internalType": "address",
          "name": "owner",
          "type": "address"
        },
        {
          "internalType": "address",
          "name": "target",
          "type": "address"
        },
        {
          "internalType": "uint256",
          "name": "value",
          "type": "uint256"
        }
      ],
      "name": "FailedToWithdrawEth",
      "type": "error"
    },
    {
      "inputs": [
        {
          "internalType": "address",
          "name": "router",
          "type": "address"
        }
      ],
      "name": "InvalidRouter",
      "type": "error"
    },
    {
      "inputs": [
        {
          "internalType": "uint256",
          "name": "currentBalance",
          "type": "uint256"
        },
        {
          "internalType": "uint256",
          "name": "calculatedFees",
          "type": "uint256"
        }
      ],
      "name": "NotEnoughBalance",
      "type": "error"
    },
    {
      "inputs": [],
      "name": "NothingToWithdraw",
      "type": "error"
    },
    {
      "anonymous": false,
      "inputs": [
        {
          "indexed": true,
          "internalType": "bytes32",
          "name": "messageId",
          "type": "bytes32"
        },
        {
          "indexed": true,
          "internalType": "uint64",
          "name": "destinationChainSelector",
          "type": "uint64"
        },
        {
          "indexed": false,
          "internalType": "address",
          "name": "receiver",
          "type": "address"
        },
        {
          "indexed": false,
          "internalType": "bytes",
          "name": "text",
          "type": "bytes"
        },
        {
          "indexed": false,
          "internalType": "address",
          "name": "feeToken",
          "type": "address"
        },
        {
          "indexed": false,
          "internalType": "uint256",
          "name": "fees",
          "type": "uint256"
        }
      ],
      "name": "MessageSent",
      "type": "event"
    },
    {
      "anonymous": false,
      "inputs": [
        {
          "indexed": true,
          "internalType": "address",
          "name": "from",
          "type": "address"
        },
        {
          "indexed": true,
          "internalType": "address",
          "name": "to",
          "type": "address"
        }
      ],
      "name": "OwnershipTransferRequested",
      "type": "event"
    },
    {
      "anonymous": false,
      "inputs": [
        {
          "indexed": true,
          "internalType": "address",
          "name": "from",
          "type": "address"
        },
        {
          "indexed": true,
          "internalType": "address",
          "name": "to",
          "type": "address"
        }
      ],
      "name": "OwnershipTransferred",
      "type": "event"
    },
    {
      "anonymous": false,
      "inputs": [
        {
          "indexed": false,
          "internalType": "uint256",
          "name": "tokenId",
          "type": "uint256"
        },
        {
          "indexed": false,
          "internalType": "address",
          "name": "newOwner",
          "type": "address"
        }
      ],
      "name": "TokenUnlocked",
      "type": "event"
    },
    {
      "inputs": [],
      "name": "acceptOwnership",
      "outputs": [],
      "stateMutability": "nonpayable",
      "type": "function"
    },
    {
      "inputs": [
        {
          "internalType": "uint64",
          "name": "_destinationChainSelector",
          "type": "uint64"
        },
        {
          "internalType": "bool",
          "name": "allowed",
          "type": "bool"
        }
      ],
      "name": "allowlistDestinationChain",
      "outputs": [],
      "stateMutability": "nonpayable",
      "type": "function"
    },
    {
      "inputs": [
        {
          "internalType": "address",
          "name": "_sender",
          "type": "address"
        },
        {
          "internalType": "bool",
          "name": "allowed",
          "type": "bool"
        }
      ],
      "name": "allowlistSender",
      "outputs": [],
      "stateMutability": "nonpayable",
      "type": "function"
    },
    {
      "inputs": [
        {
          "internalType": "uint64",
          "name": "_sourceChainSelector",
          "type": "uint64"
        },
        {
          "internalType": "bool",
          "name": "allowed",
          "type": "bool"
        }
      ],
      "name": "allowlistSourceChain",
      "outputs": [],
      "stateMutability": "nonpayable",
      "type": "function"
    },
    {
      "inputs": [
        {
          "internalType": "uint64",
          "name": "",
          "type": "uint64"
        }
      ],
      "name": "allowlistedDestinationChains",
      "outputs": [
        {
          "internalType": "bool",
          "name": "",
          "type": "bool"
        }
      ],
      "stateMutability": "view",
      "type": "function"
    },
    {
      "inputs": [
        {
          "internalType": "address",
          "name": "",
          "type": "address"
        }
      ],
      "name": "allowlistedSenders",
      "outputs": [
        {
          "internalType": "bool",
          "name": "",
          "type": "bool"
        }
      ],
      "stateMutability": "view",
      "type": "function"
    },
    {
      "inputs": [
        {
          "internalType": "uint64",
          "name": "",
          "type": "uint64"
        }
      ],
      "name": "allowlistedSourceChains",
      "outputs": [
        {
          "internalType": "bool",
          "name": "",
          "type": "bool"
        }
      ],
      "stateMutability": "view",
      "type": "function"
    },
    {
      "inputs": [
        {
          "components": [
            {
              "internalType": "bytes32",
              "name": "messageId",
              "type": "bytes32"
            },
            {
              "internalType": "uint64",
              "name": "sourceChainSelector",
              "type": "uint64"
            },
            {
              "internalType": "bytes",
              "name": "sender",
              "type": "bytes"
            },
            {
              "internalType": "bytes",
              "name": "data",
              "type": "bytes"
            },
            {
              "components": [
                {
                  "internalType": "address",
                  "name": "token",
                  "type": "address"
                },
                {
                  "internalType": "uint256",
                  "name": "amount",
                  "type": "uint256"
                }
              ],
              "internalType": "struct Client.EVMTokenAmount[]",
              "name": "destTokenAmounts",
              "type": "tuple[]"
            }
          ],
          "internalType": "struct Client.Any2EVMMessage",
          "name": "message",
          "type": "tuple"
        }
      ],
      "name": "ccipReceive",
      "outputs": [],
      "stateMutability": "nonpayable",
      "type": "function"
    },
    {
      "inputs": [],
      "name": "getLastReceivedMessageDetails",
      "outputs": [
        {
          "internalType": "bytes32",
          "name": "messageId",
          "type": "bytes32"
        },
        {
          "internalType": "string",
          "name": "text",
          "type": "string"
        }
      ],
      "stateMutability": "view",
      "type": "function"
    },
    {
      "inputs": [],
      "name": "getRouter",
      "outputs": [
        {
          "internalType": "address",
          "name": "",
          "type": "address"
        }
      ],
      "stateMutability": "view",
      "type": "function"
    },
    {
      "inputs": [
        {
          "internalType": "uint256",
          "name": "tokenId",
          "type": "uint256"
        },
        {
          "internalType": "address",
          "name": "newOwner",
          "type": "address"
        },
        {
          "internalType": "uint64",
          "name": "destChainSelector",
          "type": "uint64"
        },
        {
          "internalType": "address",
          "name": "destReceiver",
          "type": "address"
        }
      ],
      "name": "lockAndSendNFT",
      "outputs": [
        {
          "internalType": "bytes32",
          "name": "",
          "type": "bytes32"
        }
      ],
      "stateMutability": "nonpayable",
      "type": "function"
    },
    {
      "inputs": [],
      "name": "nft",
      "outputs": [
        {
          "internalType": "contract MyToken",
          "name": "",
          "type": "address"
        }
      ],
      "stateMutability": "view",
      "type": "function"
    },
    {
      "inputs": [],
      "name": "owner",
      "outputs": [
        {
          "internalType": "address",
          "name": "",
          "type": "address"
        }
      ],
      "stateMutability": "view",
      "type": "function"
    },
    {
      "inputs": [
        {
          "internalType": "bytes4",
          "name": "interfaceId",
          "type": "bytes4"
        }
      ],
      "name": "supportsInterface",
      "outputs": [
        {
          "internalType": "bool",
          "name": "",
          "type": "bool"
        }
      ],
      "stateMutability": "view",
      "type": "function"
    },
    {
      "inputs": [
        {
          "internalType": "uint256",
          "name": "",
          "type": "uint256"
        }
      ],
      "name": "tokenLocked",
      "outputs": [
        {
          "internalType": "bool",
          "name": "",
          "type": "bool"
        }
      ],
      "stateMutability": "view",
      "type": "function"
    },
    {
      "inputs": [
        {
          "internalType": "address",
          "name": "to",
          "type": "address"
        }
      ],
      "name": "transferOwnership",
      "outputs": [],
      "stateMutability": "nonpayable",
      "type": "function"
    },
    {
      "inputs": [
        {
          "internalType": "address",
          "name": "_beneficiary",
          "type": "address"
        }
      ],
      "name": "withdraw",
      "outputs": [],
      "stateMutability": "nonpayable",
      "type": "function"
    },
    {
      "inputs": [
        {
          "internalType": "address",
          "name": "_beneficiary",
          "type": "address"
        },
        {
          "internalType": "address",
          "name": "_token",
          "type": "address"
        }
      ],
      "name": "withdrawToken",
      "outputs": [],
      "stateMutability": "nonpayable",
      "type": "function"
    },
    {
      "stateMutability": "payable",
      "type": "receive"
    }
  ],
  "bytecode": "0x60a060405234801561001057600080fd5b5060405161314c38038061314c833981810160405281019061003291906103ed565b3380600085600073ffffffffffffffffffffffffffffffffffffffff168173ffffffffffffffffffffffffffffffffffffffff16036100a95760006040517fd7f733340000000000000000000000000000000000000000000000000000000081526004016100a0919061044f565b60405180910390fd5b8073ffffffffffffffffffffffffffffffffffffffff1660808173ffffffffffffffffffffffffffffffffffffffff168152505050600073ffffffffffffffffffffffffffffffffffffffff168273ffffffffffffffffffffffffffffffffffffffff160361014d576040517f08c379a0000000000000000000000000000000000000000000000000000000008152600401610144906104c7565b60405180910390fd5b816000806101000a81548173ffffffffffffffffffffffffffffffffffffffff021916908373ffffffffffffffffffffffffffffffffffffffff160217905550600073ffffffffffffffffffffffffffffffffffffffff168173ffffffffffffffffffffffffffffffffffffffff16146101d1576101d08161025e60201b60201c565b5b50505081600760006101000a81548173ffffffffffffffffffffffffffffffffffffffff021916908373ffffffffffffffffffffffffffffffffffffffff16021790555080600860006101000a81548173ffffffffffffffffffffffffffffffffffffffff021916908373ffffffffffffffffffffffffffffffffffffffff160217905550505050610553565b3373ffffffffffffffffffffffffffffffffffffffff168173ffffffffffffffffffffffffffffffffffffffff16036102cc576040517f08c379a00000000000000000000000000000000000000000000000000000000081526004016102c390610533565b60405180910390fd5b80600160006101000a81548173ffffffffffffffffffffffffffffffffffffffff021916908373ffffffffffffffffffffffffffffffffffffffff1602179055508073ffffffffffffffffffffffffffffffffffffffff1660008054906101000a900473ffffffffffffffffffffffffffffffffffffffff1673ffffffffffffffffffffffffffffffffffffffff167fed8889f560326eb138920d842192f0eb3dd22b4f139c87a2c57538e05bae127860405160405180910390a350565b600080fd5b600073ffffffffffffffffffffffffffffffffffffffff82169050919050565b60006103ba8261038f565b9050919050565b6103ca816103af565b81146103d557600080fd5b50565b6000815190506103e7816103c1565b92915050565b6000806000606084860312156104065761040561038a565b5b6000610414868287016103d8565b9350506020610425868287016103d8565b9250506040610436868287016103d8565b9150509250925092565b610449816103af565b82525050565b60006020820190506104646000830184610440565b92915050565b600082825260208201905092915050565b7f43616e6e6f7420736574206f776e657220746f207a65726f0000000000000000600082015250565b60006104b160188361046a565b91506104bc8261047b565b602082019050919050565b600060208201905081810360008301526104e0816104a4565b9050919050565b7f43616e6e6f74207472616e7366657220746f2073656c66000000000000000000600082015250565b600061051d60178361046a565b9150610528826104e7565b602082019050919050565b6000602082019050818103600083015261054c81610510565b9050919050565b608051612bde61056e6000396000610b060152612bde6000f3fe60806040526004361061010d5760003560e01c806379ba509711610095578063b0f479a111610064578063b0f479a114610387578063db04fa49146103b2578063e34ed575146103db578063eab5b02c14610418578063f2fde38b1461044157610114565b806379ba5097146102f357806385572ffb1461030a5780638da5cb5b1461033357806396d3b83d1461035e57610114565b806346694b7d116100dc57806346694b7d146101e857806347ccca021461022557806351cff8d9146102505780636159ada11461027957806375c67c66146102b657610114565b806301ffc9a714610119578063263596a5146101565780633aeac4e1146101825780634030d521146101ab57610114565b3661011457005b600080fd5b34801561012557600080fd5b50610140600480360381019061013b919061199e565b61046a565b60405161014d91906119e6565b60405180910390f35b34801561016257600080fd5b5061016b61053c565b604051610179929190611aaa565b60405180910390f35b34801561018e57600080fd5b506101a960048036038101906101a49190611b38565b6105d9565b005b3480156101b757600080fd5b506101d260048036038101906101cd9190611bb8565b6106c9565b6040516101df91906119e6565b60405180910390f35b3480156101f457600080fd5b5061020f600480360381019061020a9190611c1b565b6106e9565b60405161021c91906119e6565b60405180910390f35b34801561023157600080fd5b5061023a610709565b6040516102479190611ca7565b60405180910390f35b34801561025c57600080fd5b5061027760048036038101906102729190611cc2565b61072f565b005b34801561028557600080fd5b506102a0600480360381019061029b9190611cc2565b61082d565b6040516102ad91906119e6565b60405180910390f35b3480156102c257600080fd5b506102dd60048036038101906102d89190611bb8565b61084d565b6040516102ea91906119e6565b60405180910390f35b3480156102ff57600080fd5b5061030861086d565b005b34801561031657600080fd5b50610331600480360381019061032c9190611d13565b610a02565b005b34801561033f57600080fd5b50610348610a8e565b6040516103559190611d6b565b60405180910390f35b34801561036a57600080fd5b5061038560048036038101906103809190611db2565b610ab7565b005b34801561039357600080fd5b5061039c610b02565b6040516103a99190611d6b565b60405180910390f35b3480156103be57600080fd5b506103d960048036038101906103d49190611db2565b610b2a565b005b3480156103e757600080fd5b5061040260048036038101906103fd9190611df2565b610b75565b60405161040f9190611e59565b60405180910390f35b34801561042457600080fd5b5061043f600480360381019061043a9190611e74565b610c76565b005b34801561044d57600080fd5b5061046860048036038101906104639190611cc2565b610cd9565b005b60007f85572ffb000000000000000000000000000000000000000000000000000000007bffffffffffffffffffffffffffffffffffffffffffffffffffffffff1916827bffffffffffffffffffffffffffffffffffffffffffffffffffffffff1916148061053557507f01ffc9a7000000000000000000000000000000000000000000000000000000007bffffffffffffffffffffffffffffffffffffffffffffffffffffffff1916827bffffffffffffffffffffffffffffffffffffffffffffffffffffffff1916145b9050919050565b60006060600254600380805461055190611ee3565b80601f016020809104026020016040519081016040528092919081815260200182805461057d90611ee3565b80156105ca5780601f1061059f576101008083540402835291602001916105ca565b820191906000526020600020905b8154815290600101906020018083116105ad57829003601f168201915b50505050509050915091509091565b6105e1610ced565b60008173ffffffffffffffffffffffffffffffffffffffff166370a08231306040518263ffffffff1660e01b815260040161061c9190611d6b565b602060405180830381865afa158015610639573d6000803e3d6000fd5b505050506040513d601f19601f8201168201806040525081019061065d9190611f29565b905060008103610699576040517fd0d04f6000000000000000000000000000000000000000000000000000000000815260040160405180910390fd5b6106c483828473ffffffffffffffffffffffffffffffffffffffff16610d7d9092919063ffffffff16565b505050565b60056020528060005260406000206000915054906101000a900460ff1681565b60096020528060005260406000206000915054906101000a900460ff1681565b600860009054906101000a900473ffffffffffffffffffffffffffffffffffffffff1681565b610737610ced565b600047905060008103610776576040517fd0d04f6000000000000000000000000000000000000000000000000000000000815260040160405180910390fd5b60008273ffffffffffffffffffffffffffffffffffffffff168260405161079c90611f87565b60006040518083038185875af1925050503d80600081146107d9576040519150601f19603f3d011682016040523d82523d6000602084013e6107de565b606091505b5050905080610828573383836040517f9d11f56300000000000000000000000000000000000000000000000000000000815260040161081f93929190611fab565b60405180910390fd5b505050565b60066020528060005260406000206000915054906101000a900460ff1681565b60046020528060005260406000206000915054906101000a900460ff1681565b600160009054906101000a900473ffffffffffffffffffffffffffffffffffffffff1673ffffffffffffffffffffffffffffffffffffffff163373ffffffffffffffffffffffffffffffffffffffff16146108fd576040517f08c379a00000000000000000000000000000000000000000000000000000000081526004016108f49061202e565b60405180910390fd5b60008060009054906101000a900473ffffffffffffffffffffffffffffffffffffffff169050336000806101000a81548173ffffffffffffffffffffffffffffffffffffffff021916908373ffffffffffffffffffffffffffffffffffffffff1602179055506000600160006101000a81548173ffffffffffffffffffffffffffffffffffffffff021916908373ffffffffffffffffffffffffffffffffffffffff1602179055503373ffffffffffffffffffffffffffffffffffffffff168173ffffffffffffffffffffffffffffffffffffffff167f8be0079c531659141344cd1fd0a4f28419497f9722a3daafe3b4186f6b6457e060405160405180910390a350565b610a0a610b02565b73ffffffffffffffffffffffffffffffffffffffff163373ffffffffffffffffffffffffffffffffffffffff1614610a7957336040517fd7f73334000000000000000000000000000000000000000000000000000000008152600401610a709190611d6b565b60405180910390fd5b610a8b81610a86906123b1565b610e03565b50565b60008060009054906101000a900473ffffffffffffffffffffffffffffffffffffffff16905090565b610abf610ced565b80600460008467ffffffffffffffff1667ffffffffffffffff16815260200190815260200160002060006101000a81548160ff0219169083151502179055505050565b60007f0000000000000000000000000000000000000000000000000000000000000000905090565b610b32610ced565b80600560008467ffffffffffffffff1667ffffffffffffffff16815260200190815260200160002060006101000a81548160ff0219169083151502179055505050565b6000600860009054906101000a900473ffffffffffffffffffffffffffffffffffffffff1673ffffffffffffffffffffffffffffffffffffffff166323b872dd3330886040518463ffffffff1660e01b8152600401610bd693929190611fab565b600060405180830381600087803b158015610bf057600080fd5b505af1158015610c04573d6000803e3d6000fd5b5050505060008585604051602001610c1d9291906123c4565b60405160208183030381529060405290506000610c3b858584610f6c565b905060016009600089815260200190815260200160002060006101000a81548160ff0219169083151502179055508092505050949350505050565b610c7e610ced565b80600660008473ffffffffffffffffffffffffffffffffffffffff1673ffffffffffffffffffffffffffffffffffffffff16815260200190815260200160002060006101000a81548160ff0219169083151502179055505050565b610ce1610ced565b610cea816113a4565b50565b60008054906101000a900473ffffffffffffffffffffffffffffffffffffffff1673ffffffffffffffffffffffffffffffffffffffff163373ffffffffffffffffffffffffffffffffffffffff1614610d7b576040517f08c379a0000000000000000000000000000000000000000000000000000000008152600401610d7290612439565b60405180910390fd5b565b610dfe8363a9059cbb60e01b8484604051602401610d9c929190612459565b604051602081830303815290604052907bffffffffffffffffffffffffffffffffffffffffffffffffffffffff19166020820180517bffffffffffffffffffffffffffffffffffffffffffffffffffffffff83818316178352505050506114d0565b505050565b806000015160028190555060008160600151806020019051810190610e2891906124e7565b90506000816000015190506000826020015190506009600083815260200190815260200160002060009054906101000a900460ff16610e9c576040517f08c379a0000000000000000000000000000000000000000000000000000000008152600401610e9390612560565b60405180910390fd5b600860009054906101000a900473ffffffffffffffffffffffffffffffffffffffff1673ffffffffffffffffffffffffffffffffffffffff166323b872dd3083856040518463ffffffff1660e01b8152600401610efb93929190611fab565b600060405180830381600087803b158015610f1557600080fd5b505af1158015610f29573d6000803e3d6000fd5b505050507f0fe7d9801197f79ef3b1595d19379eb58f0fff5f98b0f6d6f34c03cae5306c378282604051610f5e9291906123c4565b60405180910390a150505050565b600080610f9c8484600760009054906101000a900473ffffffffffffffffffffffffffffffffffffffff16611597565b905060003073ffffffffffffffffffffffffffffffffffffffff1663b0f479a16040518163ffffffff1660e01b8152600401602060405180830381865afa158015610feb573d6000803e3d6000fd5b505050506040513d601f19601f8201168201806040525081019061100f9190612580565b905060008173ffffffffffffffffffffffffffffffffffffffff166320487ded88856040518363ffffffff1660e01b815260040161104e929190612798565b602060405180830381865afa15801561106b573d6000803e3d6000fd5b505050506040513d601f19601f8201168201806040525081019061108f9190611f29565b9050600760009054906101000a900473ffffffffffffffffffffffffffffffffffffffff1673ffffffffffffffffffffffffffffffffffffffff166370a08231306040518263ffffffff1660e01b81526004016110ec9190611d6b565b602060405180830381865afa158015611109573d6000803e3d6000fd5b505050506040513d601f19601f8201168201806040525081019061112d9190611f29565b81111561120e57600760009054906101000a900473ffffffffffffffffffffffffffffffffffffffff1673ffffffffffffffffffffffffffffffffffffffff166370a08231306040518263ffffffff1660e01b815260040161118f9190611d6b565b602060405180830381865afa1580156111ac573d6000803e3d6000fd5b505050506040513d601f19601f820116820180604052508101906111d09190611f29565b816040517f8f0f42060000000000000000000000000000000000000000000000000000000081526004016112059291906127c8565b60405180910390fd5b600760009054906101000a900473ffffffffffffffffffffffffffffffffffffffff1673ffffffffffffffffffffffffffffffffffffffff1663095ea7b383836040518363ffffffff1660e01b815260040161126b929190612459565b6020604051808303816000875af115801561128a573d6000803e3d6000fd5b505050506040513d601f19601f820116820180604052508101906112ae9190612806565b508173ffffffffffffffffffffffffffffffffffffffff166396f4e9f988856040518363ffffffff1660e01b81526004016112ea929190612798565b6020604051808303816000875af1158015611309573d6000803e3d6000fd5b505050506040513d601f19601f8201168201806040525081019061132d9190612848565b93508667ffffffffffffffff16847f3d8a9f055772202d2c3c1fddbad930d3dbe588d8692b75b84cee0719462829118888600760009054906101000a900473ffffffffffffffffffffffffffffffffffffffff168660405161139294939291906128bf565b60405180910390a35050509392505050565b3373ffffffffffffffffffffffffffffffffffffffff168173ffffffffffffffffffffffffffffffffffffffff1603611412576040517f08c379a000000000000000000000000000000000000000000000000000000000815260040161140990612957565b60405180910390fd5b80600160006101000a81548173ffffffffffffffffffffffffffffffffffffffff021916908373ffffffffffffffffffffffffffffffffffffffff1602179055508073ffffffffffffffffffffffffffffffffffffffff1660008054906101000a900473ffffffffffffffffffffffffffffffffffffffff1673ffffffffffffffffffffffffffffffffffffffff167fed8889f560326eb138920d842192f0eb3dd22b4f139c87a2c57538e05bae127860405160405180910390a350565b6000611532826040518060400160405280602081526020017f5361666545524332303a206c6f772d6c6576656c2063616c6c206661696c65648152508573ffffffffffffffffffffffffffffffffffffffff166116719092919063ffffffff16565b905060008151111561159257808060200190518101906115529190612806565b611591576040517f08c379a0000000000000000000000000000000000000000000000000000000008152600401611588906129e9565b60405180910390fd5b5b505050565b61159f6118bd565b6040518060a00160405280856040516020016115bb9190611d6b565b6040516020818303038152906040528152602001848152602001600067ffffffffffffffff8111156115f0576115ef612053565b5b60405190808252806020026020018201604052801561162957816020015b611616611902565b81526020019060019003908161160e5790505b5081526020018373ffffffffffffffffffffffffffffffffffffffff168152602001611665604051806020016040528062030d40815250611689565b81525090509392505050565b60606116808484600085611708565b90509392505050565b60606397a657c960e01b826040516024016116a49190612a25565b604051602081830303815290604052907bffffffffffffffffffffffffffffffffffffffffffffffffffffffff19166020820180517bffffffffffffffffffffffffffffffffffffffffffffffffffffffff83818316178352505050509050919050565b60608247101561174d576040517f08c379a000000000000000000000000000000000000000000000000000000000815260040161174490612ab2565b60405180910390fd5b6000808673ffffffffffffffffffffffffffffffffffffffff1685876040516117769190612b03565b60006040518083038185875af1925050503d80600081146117b3576040519150601f19603f3d011682016040523d82523d6000602084013e6117b8565b606091505b50915091506117c9878383876117d5565b92505050949350505050565b6060831561183757600083510361182f576117ef8561184a565b61182e576040517f08c379a000000000000000000000000000000000000000000000000000000000815260040161182590612b66565b60405180910390fd5b5b829050611842565b611841838361186d565b5b949350505050565b6000808273ffffffffffffffffffffffffffffffffffffffff163b119050919050565b6000825111156118805781518083602001fd5b806040517f08c379a00000000000000000000000000000000000000000000000000000000081526004016118b49190612b86565b60405180910390fd5b6040518060a00160405280606081526020016060815260200160608152602001600073ffffffffffffffffffffffffffffffffffffffff168152602001606081525090565b6040518060400160405280600073ffffffffffffffffffffffffffffffffffffffff168152602001600081525090565b6000604051905090565b600080fd5b600080fd5b60007fffffffff0000000000000000000000000000000000000000000000000000000082169050919050565b61197b81611946565b811461198657600080fd5b50565b60008135905061199881611972565b92915050565b6000602082840312156119b4576119b361193c565b5b60006119c284828501611989565b91505092915050565b60008115159050919050565b6119e0816119cb565b82525050565b60006020820190506119fb60008301846119d7565b92915050565b6000819050919050565b611a1481611a01565b82525050565b600081519050919050565b600082825260208201905092915050565b60005b83811015611a54578082015181840152602081019050611a39565b60008484015250505050565b6000601f19601f8301169050919050565b6000611a7c82611a1a565b611a868185611a25565b9350611a96818560208601611a36565b611a9f81611a60565b840191505092915050565b6000604082019050611abf6000830185611a0b565b8181036020830152611ad18184611a71565b90509392505050565b600073ffffffffffffffffffffffffffffffffffffffff82169050919050565b6000611b0582611ada565b9050919050565b611b1581611afa565b8114611b2057600080fd5b50565b600081359050611b3281611b0c565b92915050565b60008060408385031215611b4f57611b4e61193c565b5b6000611b5d85828601611b23565b9250506020611b6e85828601611b23565b9150509250929050565b600067ffffffffffffffff82169050919050565b611b9581611b78565b8114611ba057600080fd5b50565b600081359050611bb281611b8c565b92915050565b600060208284031215611bce57611bcd61193c565b5b6000611bdc84828501611ba3565b91505092915050565b6000819050919050565b611bf881611be5565b8114611c0357600080fd5b50565b600081359050611c1581611bef565b92915050565b600060208284031215611c3157611c3061193c565b5b6000611c3f84828501611c06565b91505092915050565b6000819050919050565b6000611c6d611c68611c6384611ada565b611c48565b611ada565b9050919050565b6000611c7f82611c52565b9050919050565b6000611c9182611c74565b9050919050565b611ca181611c86565b82525050565b6000602082019050611cbc6000830184611c98565b92915050565b600060208284031215611cd857611cd761193c565b5b6000611ce684828501611b23565b91505092915050565b600080fd5b600060a08284031215611d0a57611d09611cef565b5b81905092915050565b600060208284031215611d2957611d2861193c565b5b600082013567ffffffffffffffff811115611d4757611d46611941565b5b611d5384828501611cf4565b91505092915050565b611d6581611afa565b82525050565b6000602082019050611d806000830184611d5c565b92915050565b611d8f816119cb565b8114611d9a57600080fd5b50565b600081359050611dac81611d86565b92915050565b60008060408385031215611dc957611dc861193c565b5b6000611dd785828601611ba3565b9250506020611de885828601611d9d565b9150509250929050565b60008060008060808587031215611e0c57611e0b61193c565b5b6000611e1a87828801611c06565b9450506020611e2b87828801611b23565b9350506040611e3c87828801611ba3565b9250506060611e4d87828801611b23565b91505092959194509250565b6000602082019050611e6e6000830184611a0b565b92915050565b60008060408385031215611e8b57611e8a61193c565b5b6000611e9985828601611b23565b9250506020611eaa85828601611d9d565b9150509250929050565b7f4e487b7100000000000000000000000000000000000000000000000000000000600052602260045260246000fd5b60006002820490506001821680611efb57607f821691505b602082108103611f0e57611f0d611eb4565b5b50919050565b600081519050611f2381611bef565b92915050565b600060208284031215611f3f57611f3e61193c565b5b6000611f4d84828501611f14565b91505092915050565b600081905092915050565b50565b6000611f71600083611f56565b9150611f7c82611f61565b600082019050919050565b6000611f9282611f64565b9150819050919050565b611fa581611be5565b82525050565b6000606082019050611fc06000830186611d5c565b611fcd6020830185611d5c565b611fda6040830184611f9c565b949350505050565b7f4d7573742062652070726f706f736564206f776e657200000000000000000000600082015250565b6000612018601683611a25565b915061202382611fe2565b602082019050919050565b600060208201905081810360008301526120478161200b565b9050919050565b600080fd5b7f4e487b7100000000000000000000000000000000000000000000000000000000600052604160045260246000fd5b61208b82611a60565b810181811067ffffffffffffffff821117156120aa576120a9612053565b5b80604052505050565b60006120bd611932565b90506120c98282612082565b919050565b600080fd5b6120dc81611a01565b81146120e757600080fd5b50565b6000813590506120f9816120d3565b92915050565b600080fd5b600080fd5b600067ffffffffffffffff82111561212457612123612053565b5b61212d82611a60565b9050602081019050919050565b82818337600083830152505050565b600061215c61215784612109565b6120b3565b90508281526020810184848401111561217857612177612104565b5b61218384828561213a565b509392505050565b600082601f8301126121a05761219f6120ff565b5b81356121b0848260208601612149565b91505092915050565b600067ffffffffffffffff8211156121d4576121d3612053565b5b602082029050602081019050919050565b600080fd5b600060408284031215612200576121ff61204e565b5b61220a60406120b3565b9050600061221a84828501611b23565b600083015250602061222e84828501611c06565b60208301525092915050565b600061224d612248846121b9565b6120b3565b905080838252602082019050604084028301858111156122705761226f6121e5565b5b835b81811015612299578061228588826121ea565b845260208401935050604081019050612272565b5050509392505050565b600082601f8301126122b8576122b76120ff565b5b81356122c884826020860161223a565b91505092915050565b600060a082840312156122e7576122e661204e565b5b6122f160a06120b3565b90506000612301848285016120ea565b600083015250602061231584828501611ba3565b602083015250604082013567ffffffffffffffff811115612339576123386120ce565b5b6123458482850161218b565b604083015250606082013567ffffffffffffffff811115612369576123686120ce565b5b6123758482850161218b565b606083015250608082013567ffffffffffffffff811115612399576123986120ce565b5b6123a5848285016122a3565b60808301525092915050565b60006123bd36836122d1565b9050919050565b60006040820190506123d96000830185611f9c565b6123e66020830184611d5c565b9392505050565b7f4f6e6c792063616c6c61626c65206279206f776e657200000000000000000000600082015250565b6000612423601683611a25565b915061242e826123ed565b602082019050919050565b6000602082019050818103600083015261245281612416565b9050919050565b600060408201905061246e6000830185611d5c565b61247b6020830184611f9c565b9392505050565b60008151905061249181611b0c565b92915050565b6000604082840312156124ad576124ac61204e565b5b6124b760406120b3565b905060006124c784828501611f14565b60008301525060206124db84828501612482565b60208301525092915050565b6000604082840312156124fd576124fc61193c565b5b600061250b84828501612497565b91505092915050565b7f746865204e4654206973206e6f74206c6f636b65640000000000000000000000600082015250565b600061254a601583611a25565b915061255582612514565b602082019050919050565b600060208201905081810360008301526125798161253d565b9050919050565b6000602082840312156125965761259561193c565b5b60006125a484828501612482565b91505092915050565b6125b681611b78565b82525050565b600081519050919050565b600082825260208201905092915050565b60006125e3826125bc565b6125ed81856125c7565b93506125fd818560208601611a36565b61260681611a60565b840191505092915050565b600081519050919050565b600082825260208201905092915050565b6000819050602082019050919050565b61264681611afa565b82525050565b61265581611be5565b82525050565b604082016000820151612671600085018261263d565b506020820151612684602085018261264c565b50505050565b6000612696838361265b565b60408301905092915050565b6000602082019050919050565b60006126ba82612611565b6126c4818561261c565b93506126cf8361262d565b8060005b838110156127005781516126e7888261268a565b97506126f2836126a2565b9250506001810190506126d3565b5085935050505092915050565b600060a083016000830151848203600086015261272a82826125d8565b9150506020830151848203602086015261274482826125d8565b9150506040830151848203604086015261275e82826126af565b9150506060830151612773606086018261263d565b506080830151848203608086015261278b82826125d8565b9150508091505092915050565b60006040820190506127ad60008301856125ad565b81810360208301526127bf818461270d565b90509392505050565b60006040820190506127dd6000830185611f9c565b6127ea6020830184611f9c565b9392505050565b60008151905061280081611d86565b92915050565b60006020828403121561281c5761281b61193c565b5b600061282a848285016127f1565b91505092915050565b600081519050612842816120d3565b92915050565b60006020828403121561285e5761285d61193c565b5b600061286c84828501612833565b91505092915050565b600082825260208201905092915050565b6000612891826125bc565b61289b8185612875565b93506128ab818560208601611a36565b6128b481611a60565b840191505092915050565b60006080820190506128d46000830187611d5c565b81810360208301526128e68186612886565b90506128f56040830185611d5c565b6129026060830184611f9c565b95945050505050565b7f43616e6e6f74207472616e7366657220746f2073656c66000000000000000000600082015250565b6000612941601783611a25565b915061294c8261290b565b602082019050919050565b6000602082019050818103600083015261297081612934565b9050919050565b7f5361666545524332303a204552433230206f7065726174696f6e20646964206e60008201527f6f74207375636365656400000000000000000000000000000000000000000000602082015250565b60006129d3602a83611a25565b91506129de82612977565b604082019050919050565b60006020820190508181036000830152612a02816129c6565b9050919050565b602082016000820151612a1f600085018261264c565b50505050565b6000602082019050612a3a6000830184612a09565b92915050565b7f416464726573733a20696e73756666696369656e742062616c616e636520666f60008201527f722063616c6c0000000000000000000000000000000000000000000000000000602082015250565b6000612a9c602683611a25565b9150612aa782612a40565b604082019050919050565b60006020820190508181036000830152612acb81612a8f565b9050919050565b6000612add826125bc565b612ae78185611f56565b9350612af7818560208601611a36565b80840191505092915050565b6000612b0f8284612ad2565b915081905092915050565b7f416464726573733a2063616c6c20746f206e6f6e2d636f6e7472616374000000600082015250565b6000612b50601d83611a25565b9150612b5b82612b1a565b602082019050919050565b60006020820190508181036000830152612b7f81612b43565b9050919050565b60006020820190508181036000830152612ba08184611a71565b90509291505056fea26469706673582212200692aa89779a8fe9884aeb711d9478eec4cc8e12280d260c55cf2cc32cd8d2cd64736f6c634300081c0033",
  "linkReferences": {},
  "deployedLinkReferences": {}
}