{
  "_format": "hh-sol-artifact-1",
  "contractName": "NFTPoolBurnAndMint",
  "sourceName": "contracts/NFTPoolBurnAndMint.sol",
  "abi": [
    {
      "inputs": [
        {
          "internalType": "address",
          "name": "_router",
          "type": "address"
        },
        {
          "internalType": "address",
          "name": "_link",
          "type": "address"
        },
        {
          "internalType": "address",
          "name": "wnftAddr",
          "type": "address"
        }
      ],
      "stateMutability": "nonpayable",
      "type": "constructor"
    },
    {
      "inputs": [
        {
          "internalType": "address",
          "name": "owner",
          "type": "address"
        },
        {
          "internalType": "address",
          "name": "target",
          "type": "address"
        },
        {
          "internalType": "uint256",
          "name": "value",
          "type": "uint256"
        }
      ],
      "name": "FailedToWithdrawEth",
      "type": "error"
    },
    {
      "inputs": [
        {
          "internalType": "address",
          "name": "router",
          "type": "address"
        }
      ],
      "name": "InvalidRouter",
      "type": "error"
    },
    {
      "inputs": [
        {
          "internalType": "uint256",
          "name": "currentBalance",
          "type": "uint256"
        },
        {
          "internalType": "uint256",
          "name": "calculatedFees",
          "type": "uint256"
        }
      ],
      "name": "NotEnoughBalance",
      "type": "error"
    },
    {
      "inputs": [],
      "name": "NothingToWithdraw",
      "type": "error"
    },
    {
      "anonymous": false,
      "inputs": [
        {
          "indexed": true,
          "internalType": "address",
          "name": "from",
          "type": "address"
        },
        {
          "indexed": true,
          "internalType": "address",
          "name": "to",
          "type": "address"
        }
      ],
      "name": "OwnershipTransferRequested",
      "type": "event"
    },
    {
      "anonymous": false,
      "inputs": [
        {
          "indexed": true,
          "internalType": "address",
          "name": "from",
          "type": "address"
        },
        {
          "indexed": true,
          "internalType": "address",
          "name": "to",
          "type": "address"
        }
      ],
      "name": "OwnershipTransferred",
      "type": "event"
    },
    {
      "anonymous": false,
      "inputs": [
        {
          "indexed": true,
          "internalType": "bytes32",
          "name": "messageId",
          "type": "bytes32"
        },
        {
          "indexed": true,
          "internalType": "uint64",
          "name": "destinationChainSelector",
          "type": "uint64"
        },
        {
          "indexed": false,
          "internalType": "address",
          "name": "receiver",
          "type": "address"
        },
        {
          "indexed": false,
          "internalType": "bytes",
          "name": "text",
          "type": "bytes"
        },
        {
          "indexed": false,
          "internalType": "address",
          "name": "feeToken",
          "type": "address"
        },
        {
          "indexed": false,
          "internalType": "uint256",
          "name": "fees",
          "type": "uint256"
        }
      ],
      "name": "TokenBurnedAndSent",
      "type": "event"
    },
    {
      "inputs": [],
      "name": "acceptOwnership",
      "outputs": [],
      "stateMutability": "nonpayable",
      "type": "function"
    },
    {
      "inputs": [
        {
          "internalType": "uint64",
          "name": "_destinationChainSelector",
          "type": "uint64"
        },
        {
          "internalType": "bool",
          "name": "allowed",
          "type": "bool"
        }
      ],
      "name": "allowlistDestinationChain",
      "outputs": [],
      "stateMutability": "nonpayable",
      "type": "function"
    },
    {
      "inputs": [
        {
          "internalType": "address",
          "name": "_sender",
          "type": "address"
        },
        {
          "internalType": "bool",
          "name": "allowed",
          "type": "bool"
        }
      ],
      "name": "allowlistSender",
      "outputs": [],
      "stateMutability": "nonpayable",
      "type": "function"
    },
    {
      "inputs": [
        {
          "internalType": "uint64",
          "name": "_sourceChainSelector",
          "type": "uint64"
        },
        {
          "internalType": "bool",
          "name": "allowed",
          "type": "bool"
        }
      ],
      "name": "allowlistSourceChain",
      "outputs": [],
      "stateMutability": "nonpayable",
      "type": "function"
    },
    {
      "inputs": [
        {
          "internalType": "uint64",
          "name": "",
          "type": "uint64"
        }
      ],
      "name": "allowlistedDestinationChains",
      "outputs": [
        {
          "internalType": "bool",
          "name": "",
          "type": "bool"
        }
      ],
      "stateMutability": "view",
      "type": "function"
    },
    {
      "inputs": [
        {
          "internalType": "address",
          "name": "",
          "type": "address"
        }
      ],
      "name": "allowlistedSenders",
      "outputs": [
        {
          "internalType": "bool",
          "name": "",
          "type": "bool"
        }
      ],
      "stateMutability": "view",
      "type": "function"
    },
    {
      "inputs": [
        {
          "internalType": "uint64",
          "name": "",
          "type": "uint64"
        }
      ],
      "name": "allowlistedSourceChains",
      "outputs": [
        {
          "internalType": "bool",
          "name": "",
          "type": "bool"
        }
      ],
      "stateMutability": "view",
      "type": "function"
    },
    {
      "inputs": [
        {
          "internalType": "uint256",
          "name": "_tokenId",
          "type": "uint256"
        },
        {
          "internalType": "address",
          "name": "newOwner",
          "type": "address"
        },
        {
          "internalType": "uint64",
          "name": "destChainSelector",
          "type": "uint64"
        },
        {
          "internalType": "address",
          "name": "receiver",
          "type": "address"
        }
      ],
      "name": "burnAndMint",
      "outputs": [],
      "stateMutability": "nonpayable",
      "type": "function"
    },
    {
      "inputs": [
        {
          "components": [
            {
              "internalType": "bytes32",
              "name": "messageId",
              "type": "bytes32"
            },
            {
              "internalType": "uint64",
              "name": "sourceChainSelector",
              "type": "uint64"
            },
            {
              "internalType": "bytes",
              "name": "sender",
              "type": "bytes"
            },
            {
              "internalType": "bytes",
              "name": "data",
              "type": "bytes"
            },
            {
              "components": [
                {
                  "internalType": "address",
                  "name": "token",
                  "type": "address"
                },
                {
                  "internalType": "uint256",
                  "name": "amount",
                  "type": "uint256"
                }
              ],
              "internalType": "struct Client.EVMTokenAmount[]",
              "name": "destTokenAmounts",
              "type": "tuple[]"
            }
          ],
          "internalType": "struct Client.Any2EVMMessage",
          "name": "message",
          "type": "tuple"
        }
      ],
      "name": "ccipReceive",
      "outputs": [],
      "stateMutability": "nonpayable",
      "type": "function"
    },
    {
      "inputs": [],
      "name": "getLastReceivedMessageDetails",
      "outputs": [
        {
          "internalType": "bytes32",
          "name": "messageId",
          "type": "bytes32"
        },
        {
          "internalType": "string",
          "name": "text",
          "type": "string"
        }
      ],
      "stateMutability": "view",
      "type": "function"
    },
    {
      "inputs": [],
      "name": "getRouter",
      "outputs": [
        {
          "internalType": "address",
          "name": "",
          "type": "address"
        }
      ],
      "stateMutability": "view",
      "type": "function"
    },
    {
      "inputs": [],
      "name": "owner",
      "outputs": [
        {
          "internalType": "address",
          "name": "",
          "type": "address"
        }
      ],
      "stateMutability": "view",
      "type": "function"
    },
    {
      "inputs": [
        {
          "internalType": "bytes4",
          "name": "interfaceId",
          "type": "bytes4"
        }
      ],
      "name": "supportsInterface",
      "outputs": [
        {
          "internalType": "bool",
          "name": "",
          "type": "bool"
        }
      ],
      "stateMutability": "view",
      "type": "function"
    },
    {
      "inputs": [
        {
          "internalType": "address",
          "name": "to",
          "type": "address"
        }
      ],
      "name": "transferOwnership",
      "outputs": [],
      "stateMutability": "nonpayable",
      "type": "function"
    },
    {
      "inputs": [
        {
          "internalType": "address",
          "name": "_beneficiary",
          "type": "address"
        }
      ],
      "name": "withdraw",
      "outputs": [],
      "stateMutability": "nonpayable",
      "type": "function"
    },
    {
      "inputs": [
        {
          "internalType": "address",
          "name": "_beneficiary",
          "type": "address"
        },
        {
          "internalType": "address",
          "name": "_token",
          "type": "address"
        }
      ],
      "name": "withdrawToken",
      "outputs": [],
      "stateMutability": "nonpayable",
      "type": "function"
    },
    {
      "inputs": [],
      "name": "wnft",
      "outputs": [
        {
          "internalType": "contract WrappedNFT",
          "name": "",
          "type": "address"
        }
      ],
      "stateMutability": "view",
      "type": "function"
    },
    {
      "stateMutability": "payable",
      "type": "receive"
    }
  ],
  "bytecode": "0x60a060405234801561001057600080fd5b50604051612ff0380380612ff0833981810160405281019061003291906103ed565b3380600085600073ffffffffffffffffffffffffffffffffffffffff168173ffffffffffffffffffffffffffffffffffffffff16036100a95760006040517fd7f733340000000000000000000000000000000000000000000000000000000081526004016100a0919061044f565b60405180910390fd5b8073ffffffffffffffffffffffffffffffffffffffff1660808173ffffffffffffffffffffffffffffffffffffffff168152505050600073ffffffffffffffffffffffffffffffffffffffff168273ffffffffffffffffffffffffffffffffffffffff160361014d576040517f08c379a0000000000000000000000000000000000000000000000000000000008152600401610144906104c7565b60405180910390fd5b816000806101000a81548173ffffffffffffffffffffffffffffffffffffffff021916908373ffffffffffffffffffffffffffffffffffffffff160217905550600073ffffffffffffffffffffffffffffffffffffffff168173ffffffffffffffffffffffffffffffffffffffff16146101d1576101d08161025e60201b60201c565b5b50505080600860006101000a81548173ffffffffffffffffffffffffffffffffffffffff021916908373ffffffffffffffffffffffffffffffffffffffff16021790555081600760006101000a81548173ffffffffffffffffffffffffffffffffffffffff021916908373ffffffffffffffffffffffffffffffffffffffff160217905550505050610553565b3373ffffffffffffffffffffffffffffffffffffffff168173ffffffffffffffffffffffffffffffffffffffff16036102cc576040517f08c379a00000000000000000000000000000000000000000000000000000000081526004016102c390610533565b60405180910390fd5b80600160006101000a81548173ffffffffffffffffffffffffffffffffffffffff021916908373ffffffffffffffffffffffffffffffffffffffff1602179055508073ffffffffffffffffffffffffffffffffffffffff1660008054906101000a900473ffffffffffffffffffffffffffffffffffffffff1673ffffffffffffffffffffffffffffffffffffffff167fed8889f560326eb138920d842192f0eb3dd22b4f139c87a2c57538e05bae127860405160405180910390a350565b600080fd5b600073ffffffffffffffffffffffffffffffffffffffff82169050919050565b60006103ba8261038f565b9050919050565b6103ca816103af565b81146103d557600080fd5b50565b6000815190506103e7816103c1565b92915050565b6000806000606084860312156104065761040561038a565b5b6000610414868287016103d8565b9350506020610425868287016103d8565b9250506040610436868287016103d8565b9150509250925092565b610449816103af565b82525050565b60006020820190506104646000830184610440565b92915050565b600082825260208201905092915050565b7f43616e6e6f7420736574206f776e657220746f207a65726f0000000000000000600082015250565b60006104b160188361046a565b91506104bc8261047b565b602082019050919050565b600060208201905081810360008301526104e0816104a4565b9050919050565b7f43616e6e6f74207472616e7366657220746f2073656c66000000000000000000600082015250565b600061051d60178361046a565b9150610528826104e7565b602082019050919050565b6000602082019050818103600083015261054c81610510565b9050919050565b608051612a8261056e6000396000610be10152612a826000f3fe6080604052600436106101025760003560e01c80637a6ee0cd116100955780639c046b1b116100645780639c046b1b1461033d578063b0f479a114610368578063db04fa4914610393578063eab5b02c146103bc578063f2fde38b146103e557610109565b80637a6ee0cd1461029757806385572ffb146102c05780638da5cb5b146102e957806396d3b83d1461031457610109565b806351cff8d9116100d157806351cff8d9146101dd5780636159ada11461020657806375c67c661461024357806379ba50971461028057610109565b806301ffc9a71461010e578063263596a51461014b5780633aeac4e1146101775780634030d521146101a057610109565b3661010957005b600080fd5b34801561011a57600080fd5b50610135600480360381019061013091906118db565b61040e565b6040516101429190611923565b60405180910390f35b34801561015757600080fd5b506101606104e0565b60405161016e9291906119e7565b60405180910390f35b34801561018357600080fd5b5061019e60048036038101906101999190611a75565b61057d565b005b3480156101ac57600080fd5b506101c760048036038101906101c29190611af5565b61066d565b6040516101d49190611923565b60405180910390f35b3480156101e957600080fd5b5061020460048036038101906101ff9190611b22565b61068d565b005b34801561021257600080fd5b5061022d60048036038101906102289190611b22565b61078b565b60405161023a9190611923565b60405180910390f35b34801561024f57600080fd5b5061026a60048036038101906102659190611af5565b6107ab565b6040516102779190611923565b60405180910390f35b34801561028c57600080fd5b506102956107cb565b005b3480156102a357600080fd5b506102be60048036038101906102b99190611b85565b610960565b005b3480156102cc57600080fd5b506102e760048036038101906102e29190611c10565b610ab7565b005b3480156102f557600080fd5b506102fe610b43565b60405161030b9190611c68565b60405180910390f35b34801561032057600080fd5b5061033b60048036038101906103369190611caf565b610b6c565b005b34801561034957600080fd5b50610352610bb7565b60405161035f9190611d4e565b60405180910390f35b34801561037457600080fd5b5061037d610bdd565b60405161038a9190611c68565b60405180910390f35b34801561039f57600080fd5b506103ba60048036038101906103b59190611caf565b610c05565b005b3480156103c857600080fd5b506103e360048036038101906103de9190611d69565b610c50565b005b3480156103f157600080fd5b5061040c60048036038101906104079190611b22565b610cb3565b005b60007f85572ffb000000000000000000000000000000000000000000000000000000007bffffffffffffffffffffffffffffffffffffffffffffffffffffffff1916827bffffffffffffffffffffffffffffffffffffffffffffffffffffffff191614806104d957507f01ffc9a7000000000000000000000000000000000000000000000000000000007bffffffffffffffffffffffffffffffffffffffffffffffffffffffff1916827bffffffffffffffffffffffffffffffffffffffffffffffffffffffff1916145b9050919050565b6000606060025460038080546104f590611dd8565b80601f016020809104026020016040519081016040528092919081815260200182805461052190611dd8565b801561056e5780601f106105435761010080835404028352916020019161056e565b820191906000526020600020905b81548152906001019060200180831161055157829003601f168201915b50505050509050915091509091565b610585610cc7565b60008173ffffffffffffffffffffffffffffffffffffffff166370a08231306040518263ffffffff1660e01b81526004016105c09190611c68565b602060405180830381865afa1580156105dd573d6000803e3d6000fd5b505050506040513d601f19601f820116820180604052508101906106019190611e1e565b90506000810361063d576040517fd0d04f6000000000000000000000000000000000000000000000000000000000815260040160405180910390fd5b61066883828473ffffffffffffffffffffffffffffffffffffffff16610d579092919063ffffffff16565b505050565b60056020528060005260406000206000915054906101000a900460ff1681565b610695610cc7565b6000479050600081036106d4576040517fd0d04f6000000000000000000000000000000000000000000000000000000000815260040160405180910390fd5b60008273ffffffffffffffffffffffffffffffffffffffff16826040516106fa90611e7c565b60006040518083038185875af1925050503d8060008114610737576040519150601f19603f3d011682016040523d82523d6000602084013e61073c565b606091505b5050905080610786573383836040517f9d11f56300000000000000000000000000000000000000000000000000000000815260040161077d93929190611ea0565b60405180910390fd5b505050565b60066020528060005260406000206000915054906101000a900460ff1681565b60046020528060005260406000206000915054906101000a900460ff1681565b600160009054906101000a900473ffffffffffffffffffffffffffffffffffffffff1673ffffffffffffffffffffffffffffffffffffffff163373ffffffffffffffffffffffffffffffffffffffff161461085b576040517f08c379a000000000000000000000000000000000000000000000000000000000815260040161085290611f23565b60405180910390fd5b60008060009054906101000a900473ffffffffffffffffffffffffffffffffffffffff169050336000806101000a81548173ffffffffffffffffffffffffffffffffffffffff021916908373ffffffffffffffffffffffffffffffffffffffff1602179055506000600160006101000a81548173ffffffffffffffffffffffffffffffffffffffff021916908373ffffffffffffffffffffffffffffffffffffffff1602179055503373ffffffffffffffffffffffffffffffffffffffff168173ffffffffffffffffffffffffffffffffffffffff167f8be0079c531659141344cd1fd0a4f28419497f9722a3daafe3b4186f6b6457e060405160405180910390a350565b600860009054906101000a900473ffffffffffffffffffffffffffffffffffffffff1673ffffffffffffffffffffffffffffffffffffffff166323b872dd3330876040518463ffffffff1660e01b81526004016109bf93929190611ea0565b600060405180830381600087803b1580156109d957600080fd5b505af11580156109ed573d6000803e3d6000fd5b50505050600860009054906101000a900473ffffffffffffffffffffffffffffffffffffffff1673ffffffffffffffffffffffffffffffffffffffff166342966c68856040518263ffffffff1660e01b8152600401610a4c9190611f43565b600060405180830381600087803b158015610a6657600080fd5b505af1158015610a7a573d6000803e3d6000fd5b5050505060008484604051602001610a93929190611f5e565b6040516020818303038152906040529050610aaf838383610ddd565b505050505050565b610abf610bdd565b73ffffffffffffffffffffffffffffffffffffffff163373ffffffffffffffffffffffffffffffffffffffff1614610b2e57336040517fd7f73334000000000000000000000000000000000000000000000000000000008152600401610b259190611c68565b60405180910390fd5b610b4081610b3b906122ea565b61121e565b50565b60008060009054906101000a900473ffffffffffffffffffffffffffffffffffffffff16905090565b610b74610cc7565b80600460008467ffffffffffffffff1667ffffffffffffffff16815260200190815260200160002060006101000a81548160ff0219169083151502179055505050565b600860009054906101000a900473ffffffffffffffffffffffffffffffffffffffff1681565b60007f0000000000000000000000000000000000000000000000000000000000000000905090565b610c0d610cc7565b80600560008467ffffffffffffffff1667ffffffffffffffff16815260200190815260200160002060006101000a81548160ff0219169083151502179055505050565b610c58610cc7565b80600660008473ffffffffffffffffffffffffffffffffffffffff1673ffffffffffffffffffffffffffffffffffffffff16815260200190815260200160002060006101000a81548160ff0219169083151502179055505050565b610cbb610cc7565b610cc4816112e1565b50565b60008054906101000a900473ffffffffffffffffffffffffffffffffffffffff1673ffffffffffffffffffffffffffffffffffffffff163373ffffffffffffffffffffffffffffffffffffffff1614610d55576040517f08c379a0000000000000000000000000000000000000000000000000000000008152600401610d4c90612349565b60405180910390fd5b565b610dd88363a9059cbb60e01b8484604051602401610d76929190612369565b604051602081830303815290604052907bffffffffffffffffffffffffffffffffffffffffffffffffffffffff19166020820180517bffffffffffffffffffffffffffffffffffffffffffffffffffffffff838183161783525050505061140d565b505050565b6000610de7610cc7565b6000610e168484600760009054906101000a900473ffffffffffffffffffffffffffffffffffffffff166114d4565b905060003073ffffffffffffffffffffffffffffffffffffffff1663b0f479a16040518163ffffffff1660e01b8152600401602060405180830381865afa158015610e65573d6000803e3d6000fd5b505050506040513d601f19601f82011682018060405250810190610e8991906123a7565b905060008173ffffffffffffffffffffffffffffffffffffffff166320487ded88856040518363ffffffff1660e01b8152600401610ec89291906125bf565b602060405180830381865afa158015610ee5573d6000803e3d6000fd5b505050506040513d601f19601f82011682018060405250810190610f099190611e1e565b9050600760009054906101000a900473ffffffffffffffffffffffffffffffffffffffff1673ffffffffffffffffffffffffffffffffffffffff166370a08231306040518263ffffffff1660e01b8152600401610f669190611c68565b602060405180830381865afa158015610f83573d6000803e3d6000fd5b505050506040513d601f19601f82011682018060405250810190610fa79190611e1e565b81111561108857600760009054906101000a900473ffffffffffffffffffffffffffffffffffffffff1673ffffffffffffffffffffffffffffffffffffffff166370a08231306040518263ffffffff1660e01b81526004016110099190611c68565b602060405180830381865afa158015611026573d6000803e3d6000fd5b505050506040513d601f19601f8201168201806040525081019061104a9190611e1e565b816040517f8f0f420600000000000000000000000000000000000000000000000000000000815260040161107f9291906125ef565b60405180910390fd5b600760009054906101000a900473ffffffffffffffffffffffffffffffffffffffff1673ffffffffffffffffffffffffffffffffffffffff1663095ea7b383836040518363ffffffff1660e01b81526004016110e5929190612369565b6020604051808303816000875af1158015611104573d6000803e3d6000fd5b505050506040513d601f19601f82011682018060405250810190611128919061262d565b508173ffffffffffffffffffffffffffffffffffffffff166396f4e9f988856040518363ffffffff1660e01b81526004016111649291906125bf565b6020604051808303816000875af1158015611183573d6000803e3d6000fd5b505050506040513d601f19601f820116820180604052508101906111a7919061266f565b93508667ffffffffffffffff16847fc152007fffdd6a8d0653f1b985d331733bbdcb8dbce0517251ca024a07ffdd908888600760009054906101000a900473ffffffffffffffffffffffffffffffffffffffff168660405161120c94939291906126e6565b60405180910390a35050509392505050565b600081606001518060200190518101906112389190612782565b9050600081602001519050600082600001519050600860009054906101000a900473ffffffffffffffffffffffffffffffffffffffff1673ffffffffffffffffffffffffffffffffffffffff166330b2c59683836040518363ffffffff1660e01b81526004016112a9929190612369565b600060405180830381600087803b1580156112c357600080fd5b505af11580156112d7573d6000803e3d6000fd5b5050505050505050565b3373ffffffffffffffffffffffffffffffffffffffff168173ffffffffffffffffffffffffffffffffffffffff160361134f576040517f08c379a0000000000000000000000000000000000000000000000000000000008152600401611346906127fb565b60405180910390fd5b80600160006101000a81548173ffffffffffffffffffffffffffffffffffffffff021916908373ffffffffffffffffffffffffffffffffffffffff1602179055508073ffffffffffffffffffffffffffffffffffffffff1660008054906101000a900473ffffffffffffffffffffffffffffffffffffffff1673ffffffffffffffffffffffffffffffffffffffff167fed8889f560326eb138920d842192f0eb3dd22b4f139c87a2c57538e05bae127860405160405180910390a350565b600061146f826040518060400160405280602081526020017f5361666545524332303a206c6f772d6c6576656c2063616c6c206661696c65648152508573ffffffffffffffffffffffffffffffffffffffff166115ae9092919063ffffffff16565b90506000815111156114cf578080602001905181019061148f919061262d565b6114ce576040517f08c379a00000000000000000000000000000000000000000000000000000000081526004016114c59061288d565b60405180910390fd5b5b505050565b6114dc6117fa565b6040518060a00160405280856040516020016114f89190611c68565b6040516020818303038152906040528152602001848152602001600067ffffffffffffffff81111561152d5761152c611f8c565b5b60405190808252806020026020018201604052801561156657816020015b61155361183f565b81526020019060019003908161154b5790505b5081526020018373ffffffffffffffffffffffffffffffffffffffff1681526020016115a2604051806020016040528062030d408152506115c6565b81525090509392505050565b60606115bd8484600085611645565b90509392505050565b60606397a657c960e01b826040516024016115e191906128c9565b604051602081830303815290604052907bffffffffffffffffffffffffffffffffffffffffffffffffffffffff19166020820180517bffffffffffffffffffffffffffffffffffffffffffffffffffffffff83818316178352505050509050919050565b60608247101561168a576040517f08c379a000000000000000000000000000000000000000000000000000000000815260040161168190612956565b60405180910390fd5b6000808673ffffffffffffffffffffffffffffffffffffffff1685876040516116b391906129a7565b60006040518083038185875af1925050503d80600081146116f0576040519150601f19603f3d011682016040523d82523d6000602084013e6116f5565b606091505b509150915061170687838387611712565b92505050949350505050565b6060831561177457600083510361176c5761172c85611787565b61176b576040517f08c379a000000000000000000000000000000000000000000000000000000000815260040161176290612a0a565b60405180910390fd5b5b82905061177f565b61177e83836117aa565b5b949350505050565b6000808273ffffffffffffffffffffffffffffffffffffffff163b119050919050565b6000825111156117bd5781518083602001fd5b806040517f08c379a00000000000000000000000000000000000000000000000000000000081526004016117f19190612a2a565b60405180910390fd5b6040518060a00160405280606081526020016060815260200160608152602001600073ffffffffffffffffffffffffffffffffffffffff168152602001606081525090565b6040518060400160405280600073ffffffffffffffffffffffffffffffffffffffff168152602001600081525090565b6000604051905090565b600080fd5b600080fd5b60007fffffffff0000000000000000000000000000000000000000000000000000000082169050919050565b6118b881611883565b81146118c357600080fd5b50565b6000813590506118d5816118af565b92915050565b6000602082840312156118f1576118f0611879565b5b60006118ff848285016118c6565b91505092915050565b60008115159050919050565b61191d81611908565b82525050565b60006020820190506119386000830184611914565b92915050565b6000819050919050565b6119518161193e565b82525050565b600081519050919050565b600082825260208201905092915050565b60005b83811015611991578082015181840152602081019050611976565b60008484015250505050565b6000601f19601f8301169050919050565b60006119b982611957565b6119c38185611962565b93506119d3818560208601611973565b6119dc8161199d565b840191505092915050565b60006040820190506119fc6000830185611948565b8181036020830152611a0e81846119ae565b90509392505050565b600073ffffffffffffffffffffffffffffffffffffffff82169050919050565b6000611a4282611a17565b9050919050565b611a5281611a37565b8114611a5d57600080fd5b50565b600081359050611a6f81611a49565b92915050565b60008060408385031215611a8c57611a8b611879565b5b6000611a9a85828601611a60565b9250506020611aab85828601611a60565b9150509250929050565b600067ffffffffffffffff82169050919050565b611ad281611ab5565b8114611add57600080fd5b50565b600081359050611aef81611ac9565b92915050565b600060208284031215611b0b57611b0a611879565b5b6000611b1984828501611ae0565b91505092915050565b600060208284031215611b3857611b37611879565b5b6000611b4684828501611a60565b91505092915050565b6000819050919050565b611b6281611b4f565b8114611b6d57600080fd5b50565b600081359050611b7f81611b59565b92915050565b60008060008060808587031215611b9f57611b9e611879565b5b6000611bad87828801611b70565b9450506020611bbe87828801611a60565b9350506040611bcf87828801611ae0565b9250506060611be087828801611a60565b91505092959194509250565b600080fd5b600060a08284031215611c0757611c06611bec565b5b81905092915050565b600060208284031215611c2657611c25611879565b5b600082013567ffffffffffffffff811115611c4457611c4361187e565b5b611c5084828501611bf1565b91505092915050565b611c6281611a37565b82525050565b6000602082019050611c7d6000830184611c59565b92915050565b611c8c81611908565b8114611c9757600080fd5b50565b600081359050611ca981611c83565b92915050565b60008060408385031215611cc657611cc5611879565b5b6000611cd485828601611ae0565b9250506020611ce585828601611c9a565b9150509250929050565b6000819050919050565b6000611d14611d0f611d0a84611a17565b611cef565b611a17565b9050919050565b6000611d2682611cf9565b9050919050565b6000611d3882611d1b565b9050919050565b611d4881611d2d565b82525050565b6000602082019050611d636000830184611d3f565b92915050565b60008060408385031215611d8057611d7f611879565b5b6000611d8e85828601611a60565b9250506020611d9f85828601611c9a565b9150509250929050565b7f4e487b7100000000000000000000000000000000000000000000000000000000600052602260045260246000fd5b60006002820490506001821680611df057607f821691505b602082108103611e0357611e02611da9565b5b50919050565b600081519050611e1881611b59565b92915050565b600060208284031215611e3457611e33611879565b5b6000611e4284828501611e09565b91505092915050565b600081905092915050565b50565b6000611e66600083611e4b565b9150611e7182611e56565b600082019050919050565b6000611e8782611e59565b9150819050919050565b611e9a81611b4f565b82525050565b6000606082019050611eb56000830186611c59565b611ec26020830185611c59565b611ecf6040830184611e91565b949350505050565b7f4d7573742062652070726f706f736564206f776e657200000000000000000000600082015250565b6000611f0d601683611962565b9150611f1882611ed7565b602082019050919050565b60006020820190508181036000830152611f3c81611f00565b9050919050565b6000602082019050611f586000830184611e91565b92915050565b6000604082019050611f736000830185611e91565b611f806020830184611c59565b9392505050565b600080fd5b7f4e487b7100000000000000000000000000000000000000000000000000000000600052604160045260246000fd5b611fc48261199d565b810181811067ffffffffffffffff82111715611fe357611fe2611f8c565b5b80604052505050565b6000611ff661186f565b90506120028282611fbb565b919050565b600080fd5b6120158161193e565b811461202057600080fd5b50565b6000813590506120328161200c565b92915050565b600080fd5b600080fd5b600067ffffffffffffffff82111561205d5761205c611f8c565b5b6120668261199d565b9050602081019050919050565b82818337600083830152505050565b600061209561209084612042565b611fec565b9050828152602081018484840111156120b1576120b061203d565b5b6120bc848285612073565b509392505050565b600082601f8301126120d9576120d8612038565b5b81356120e9848260208601612082565b91505092915050565b600067ffffffffffffffff82111561210d5761210c611f8c565b5b602082029050602081019050919050565b600080fd5b60006040828403121561213957612138611f87565b5b6121436040611fec565b9050600061215384828501611a60565b600083015250602061216784828501611b70565b60208301525092915050565b6000612186612181846120f2565b611fec565b905080838252602082019050604084028301858111156121a9576121a861211e565b5b835b818110156121d257806121be8882612123565b8452602084019350506040810190506121ab565b5050509392505050565b600082601f8301126121f1576121f0612038565b5b8135612201848260208601612173565b91505092915050565b600060a082840312156122205761221f611f87565b5b61222a60a0611fec565b9050600061223a84828501612023565b600083015250602061224e84828501611ae0565b602083015250604082013567ffffffffffffffff81111561227257612271612007565b5b61227e848285016120c4565b604083015250606082013567ffffffffffffffff8111156122a2576122a1612007565b5b6122ae848285016120c4565b606083015250608082013567ffffffffffffffff8111156122d2576122d1612007565b5b6122de848285016121dc565b60808301525092915050565b60006122f6368361220a565b9050919050565b7f4f6e6c792063616c6c61626c65206279206f776e657200000000000000000000600082015250565b6000612333601683611962565b915061233e826122fd565b602082019050919050565b6000602082019050818103600083015261236281612326565b9050919050565b600060408201905061237e6000830185611c59565b61238b6020830184611e91565b9392505050565b6000815190506123a181611a49565b92915050565b6000602082840312156123bd576123bc611879565b5b60006123cb84828501612392565b91505092915050565b6123dd81611ab5565b82525050565b600081519050919050565b600082825260208201905092915050565b600061240a826123e3565b61241481856123ee565b9350612424818560208601611973565b61242d8161199d565b840191505092915050565b600081519050919050565b600082825260208201905092915050565b6000819050602082019050919050565b61246d81611a37565b82525050565b61247c81611b4f565b82525050565b6040820160008201516124986000850182612464565b5060208201516124ab6020850182612473565b50505050565b60006124bd8383612482565b60408301905092915050565b6000602082019050919050565b60006124e182612438565b6124eb8185612443565b93506124f683612454565b8060005b8381101561252757815161250e88826124b1565b9750612519836124c9565b9250506001810190506124fa565b5085935050505092915050565b600060a083016000830151848203600086015261255182826123ff565b9150506020830151848203602086015261256b82826123ff565b9150506040830151848203604086015261258582826124d6565b915050606083015161259a6060860182612464565b50608083015184820360808601526125b282826123ff565b9150508091505092915050565b60006040820190506125d460008301856123d4565b81810360208301526125e68184612534565b90509392505050565b60006040820190506126046000830185611e91565b6126116020830184611e91565b9392505050565b60008151905061262781611c83565b92915050565b60006020828403121561264357612642611879565b5b600061265184828501612618565b91505092915050565b6000815190506126698161200c565b92915050565b60006020828403121561268557612684611879565b5b60006126938482850161265a565b91505092915050565b600082825260208201905092915050565b60006126b8826123e3565b6126c2818561269c565b93506126d2818560208601611973565b6126db8161199d565b840191505092915050565b60006080820190506126fb6000830187611c59565b818103602083015261270d81866126ad565b905061271c6040830185611c59565b6127296060830184611e91565b95945050505050565b60006040828403121561274857612747611f87565b5b6127526040611fec565b9050600061276284828501611e09565b600083015250602061277684828501612392565b60208301525092915050565b60006040828403121561279857612797611879565b5b60006127a684828501612732565b91505092915050565b7f43616e6e6f74207472616e7366657220746f2073656c66000000000000000000600082015250565b60006127e5601783611962565b91506127f0826127af565b602082019050919050565b60006020820190508181036000830152612814816127d8565b9050919050565b7f5361666545524332303a204552433230206f7065726174696f6e20646964206e60008201527f6f74207375636365656400000000000000000000000000000000000000000000602082015250565b6000612877602a83611962565b91506128828261281b565b604082019050919050565b600060208201905081810360008301526128a68161286a565b9050919050565b6020820160008201516128c36000850182612473565b50505050565b60006020820190506128de60008301846128ad565b92915050565b7f416464726573733a20696e73756666696369656e742062616c616e636520666f60008201527f722063616c6c0000000000000000000000000000000000000000000000000000602082015250565b6000612940602683611962565b915061294b826128e4565b604082019050919050565b6000602082019050818103600083015261296f81612933565b9050919050565b6000612981826123e3565b61298b8185611e4b565b935061299b818560208601611973565b80840191505092915050565b60006129b38284612976565b915081905092915050565b7f416464726573733a2063616c6c20746f206e6f6e2d636f6e7472616374000000600082015250565b60006129f4601d83611962565b91506129ff826129be565b602082019050919050565b60006020820190508181036000830152612a23816129e7565b9050919050565b60006020820190508181036000830152612a4481846119ae565b90509291505056fea26469706673582212202ec2b0828b499ec14ca88d135f6fc3de3bd756342bf518ee8ecd5f6af3031c5f64736f6c634300081c0033",
  "linkReferences": {},
  "deployedLinkReferences": {}
}