{
  "_format": "hh-sol-artifact-1",
  "contractName": "MyToken",
  "sourceName": "contracts/MyToken.sol",
  "abi": [
    {
      "inputs": [
        {
          "internalType": "string",
          "name": "tokenName",
          "type": "string"
        },
        {
          "internalType": "string",
          "name": "tokenSymbol",
          "type": "string"
        }
      ],
      "stateMutability": "nonpayable",
      "type": "constructor"
    },
    {
      "inputs": [],
      "name": "ERC721EnumerableForbiddenBatchMint",
      "type": "error"
    },
    {
      "inputs": [
        {
          "internalType": "address",
          "name": "sender",
          "type": "address"
        },
        {
          "internalType": "uint256",
          "name": "tokenId",
          "type": "uint256"
        },
        {
          "internalType": "address",
          "name": "owner",
          "type": "address"
        }
      ],
      "name": "ERC721IncorrectOwner",
      "type": "error"
    },
    {
      "inputs": [
        {
          "internalType": "address",
          "name": "operator",
          "type": "address"
        },
        {
          "internalType": "uint256",
          "name": "tokenId",
          "type": "uint256"
        }
      ],
      "name": "ERC721InsufficientApproval",
      "type": "error"
    },
    {
      "inputs": [
        {
          "internalType": "address",
          "name": "approver",
          "type": "address"
        }
      ],
      "name": "ERC721InvalidApprover",
      "type": "error"
    },
    {
      "inputs": [
        {
          "internalType": "address",
          "name": "operator",
          "type": "address"
        }
      ],
      "name": "ERC721InvalidOperator",
      "type": "error"
    },
    {
      "inputs": [
        {
          "internalType": "address",
          "name": "owner",
          "type": "address"
        }
      ],
      "name": "ERC721InvalidOwner",
      "type": "error"
    },
    {
      "inputs": [
        {
          "internalType": "address",
          "name": "receiver",
          "type": "address"
        }
      ],
      "name": "ERC721InvalidReceiver",
      "type": "error"
    },
    {
      "inputs": [
        {
          "internalType": "address",
          "name": "sender",
          "type": "address"
        }
      ],
      "name": "ERC721InvalidSender",
      "type": "error"
    },
    {
      "inputs": [
        {
          "internalType": "uint256",
          "name": "tokenId",
          "type": "uint256"
        }
      ],
      "name": "ERC721NonexistentToken",
      "type": "error"
    },
    {
      "inputs": [
        {
          "internalType": "address",
          "name": "owner",
          "type": "address"
        },
        {
          "internalType": "uint256",
          "name": "index",
          "type": "uint256"
        }
      ],
      "name": "ERC721OutOfBoundsIndex",
      "type": "error"
    },
    {
      "inputs": [
        {
          "internalType": "address",
          "name": "owner",
          "type": "address"
        }
      ],
      "name": "OwnableInvalidOwner",
      "type": "error"
    },
    {
      "inputs": [
        {
          "internalType": "address",
          "name": "account",
          "type": "address"
        }
      ],
      "name": "OwnableUnauthorizedAccount",
      "type": "error"
    },
    {
      "anonymous": false,
      "inputs": [
        {
          "indexed": true,
          "internalType": "address",
          "name": "owner",
          "type": "address"
        },
        {
          "indexed": true,
          "internalType": "address",
          "name": "approved",
          "type": "address"
        },
        {
          "indexed": true,
          "internalType": "uint256",
          "name": "tokenId",
          "type": "uint256"
        }
      ],
      "name": "Approval",
      "type": "event"
    },
    {
      "anonymous": false,
      "inputs": [
        {
          "indexed": true,
          "internalType": "address",
          "name": "owner",
          "type": "address"
        },
        {
          "indexed": true,
          "internalType": "address",
          "name": "operator",
          "type": "address"
        },
        {
          "indexed": false,
          "internalType": "bool",
          "name": "approved",
          "type": "bool"
        }
      ],
      "name": "ApprovalForAll",
      "type": "event"
    },
    {
      "anonymous": false,
      "inputs": [
        {
          "indexed": false,
          "internalType": "uint256",
          "name": "_fromTokenId",
          "type": "uint256"
        },
        {
          "indexed": false,
          "internalType": "uint256",
          "name": "_toTokenId",
          "type": "uint256"
        }
      ],
      "name": "BatchMetadataUpdate",
      "type": "event"
    },
    {
      "anonymous": false,
      "inputs": [
        {
          "indexed": false,
          "internalType": "uint256",
          "name": "_tokenId",
          "type": "uint256"
        }
      ],
      "name": "MetadataUpdate",
      "type": "event"
    },
    {
      "anonymous": false,
      "inputs": [
        {
          "indexed": true,
          "internalType": "address",
          "name": "previousOwner",
          "type": "address"
        },
        {
          "indexed": true,
          "internalType": "address",
          "name": "newOwner",
          "type": "address"
        }
      ],
      "name": "OwnershipTransferred",
      "type": "event"
    },
    {
      "anonymous": false,
      "inputs": [
        {
          "indexed": true,
          "internalType": "address",
          "name": "from",
          "type": "address"
        },
        {
          "indexed": true,
          "internalType": "address",
          "name": "to",
          "type": "address"
        },
        {
          "indexed": true,
          "internalType": "uint256",
          "name": "tokenId",
          "type": "uint256"
        }
      ],
      "name": "Transfer",
      "type": "event"
    },
    {
      "inputs": [],
      "name": "METADATA_URI",
      "outputs": [
        {
          "internalType": "string",
          "name": "",
          "type": "string"
        }
      ],
      "stateMutability": "view",
      "type": "function"
    },
    {
      "inputs": [
        {
          "internalType": "address",
          "name": "to",
          "type": "address"
        },
        {
          "internalType": "uint256",
          "name": "tokenId",
          "type": "uint256"
        }
      ],
      "name": "approve",
      "outputs": [],
      "stateMutability": "nonpayable",
      "type": "function"
    },
    {
      "inputs": [
        {
          "internalType": "address",
          "name": "owner",
          "type": "address"
        }
      ],
      "name": "balanceOf",
      "outputs": [
        {
          "internalType": "uint256",
          "name": "",
          "type": "uint256"
        }
      ],
      "stateMutability": "view",
      "type": "function"
    },
    {
      "inputs": [
        {
          "internalType": "uint256",
          "name": "tokenId",
          "type": "uint256"
        }
      ],
      "name": "burn",
      "outputs": [],
      "stateMutability": "nonpayable",
      "type": "function"
    },
    {
      "inputs": [
        {
          "internalType": "uint256",
          "name": "tokenId",
          "type": "uint256"
        }
      ],
      "name": "getApproved",
      "outputs": [
        {
          "internalType": "address",
          "name": "",
          "type": "address"
        }
      ],
      "stateMutability": "view",
      "type": "function"
    },
    {
      "inputs": [
        {
          "internalType": "address",
          "name": "owner",
          "type": "address"
        },
        {
          "internalType": "address",
          "name": "operator",
          "type": "address"
        }
      ],
      "name": "isApprovedForAll",
      "outputs": [
        {
          "internalType": "bool",
          "name": "",
          "type": "bool"
        }
      ],
      "stateMutability": "view",
      "type": "function"
    },
    {
      "inputs": [],
      "name": "name",
      "outputs": [
        {
          "internalType": "string",
          "name": "",
          "type": "string"
        }
      ],
      "stateMutability": "view",
      "type": "function"
    },
    {
      "inputs": [],
      "name": "owner",
      "outputs": [
        {
          "internalType": "address",
          "name": "",
          "type": "address"
        }
      ],
      "stateMutability": "view",
      "type": "function"
    },
    {
      "inputs": [
        {
          "internalType": "uint256",
          "name": "tokenId",
          "type": "uint256"
        }
      ],
      "name": "ownerOf",
      "outputs": [
        {
          "internalType": "address",
          "name": "",
          "type": "address"
        }
      ],
      "stateMutability": "view",
      "type": "function"
    },
    {
      "inputs": [],
      "name": "renounceOwnership",
      "outputs": [],
      "stateMutability": "nonpayable",
      "type": "function"
    },
    {
      "inputs": [
        {
          "internalType": "address",
          "name": "to",
          "type": "address"
        }
      ],
      "name": "safeMint",
      "outputs": [],
      "stateMutability": "nonpayable",
      "type": "function"
    },
    {
      "inputs": [
        {
          "internalType": "address",
          "name": "from",
          "type": "address"
        },
        {
          "internalType": "address",
          "name": "to",
          "type": "address"
        },
        {
          "internalType": "uint256",
          "name": "tokenId",
          "type": "uint256"
        }
      ],
      "name": "safeTransferFrom",
      "outputs": [],
      "stateMutability": "nonpayable",
      "type": "function"
    },
    {
      "inputs": [
        {
          "internalType": "address",
          "name": "from",
          "type": "address"
        },
        {
          "internalType": "address",
          "name": "to",
          "type": "address"
        },
        {
          "internalType": "uint256",
          "name": "tokenId",
          "type": "uint256"
        },
        {
          "internalType": "bytes",
          "name": "data",
          "type": "bytes"
        }
      ],
      "name": "safeTransferFrom",
      "outputs": [],
      "stateMutability": "nonpayable",
      "type": "function"
    },
    {
      "inputs": [
        {
          "internalType": "address",
          "name": "operator",
          "type": "address"
        },
        {
          "internalType": "bool",
          "name": "approved",
          "type": "bool"
        }
      ],
      "name": "setApprovalForAll",
      "outputs": [],
      "stateMutability": "nonpayable",
      "type": "function"
    },
    {
      "inputs": [
        {
          "internalType": "bytes4",
          "name": "interfaceId",
          "type": "bytes4"
        }
      ],
      "name": "supportsInterface",
      "outputs": [
        {
          "internalType": "bool",
          "name": "",
          "type": "bool"
        }
      ],
      "stateMutability": "view",
      "type": "function"
    },
    {
      "inputs": [],
      "name": "symbol",
      "outputs": [
        {
          "internalType": "string",
          "name": "",
          "type": "string"
        }
      ],
      "stateMutability": "view",
      "type": "function"
    },
    {
      "inputs": [
        {
          "internalType": "uint256",
          "name": "index",
          "type": "uint256"
        }
      ],
      "name": "tokenByIndex",
      "outputs": [
        {
          "internalType": "uint256",
          "name": "",
          "type": "uint256"
        }
      ],
      "stateMutability": "view",
      "type": "function"
    },
    {
      "inputs": [
        {
          "internalType": "address",
          "name": "owner",
          "type": "address"
        },
        {
          "internalType": "uint256",
          "name": "index",
          "type": "uint256"
        }
      ],
      "name": "tokenOfOwnerByIndex",
      "outputs": [
        {
          "internalType": "uint256",
          "name": "",
          "type": "uint256"
        }
      ],
      "stateMutability": "view",
      "type": "function"
    },
    {
      "inputs": [
        {
          "internalType": "uint256",
          "name": "tokenId",
          "type": "uint256"
        }
      ],
      "name": "tokenURI",
      "outputs": [
        {
          "internalType": "string",
          "name": "",
          "type": "string"
        }
      ],
      "stateMutability": "view",
      "type": "function"
    },
    {
      "inputs": [],
      "name": "totalSupply",
      "outputs": [
        {
          "internalType": "uint256",
          "name": "",
          "type": "uint256"
        }
      ],
      "stateMutability": "view",
      "type": "function"
    },
    {
      "inputs": [
        {
          "internalType": "address",
          "name": "from",
          "type": "address"
        },
        {
          "internalType": "address",
          "name": "to",
          "type": "address"
        },
        {
          "internalType": "uint256",
          "name": "tokenId",
          "type": "uint256"
        }
      ],
      "name": "transferFrom",
      "outputs": [],
      "stateMutability": "nonpayable",
      "type": "function"
    },
    {
      "inputs": [
        {
          "internalType": "address",
          "name": "newOwner",
          "type": "address"
        }
      ],
      "name": "transferOwnership",
      "outputs": [],
      "stateMutability": "nonpayable",
      "type": "function"
    }
  ],
  "bytecode": "0x608060405234801561001057600080fd5b506040516133dd3803806133dd8339818101604052810190610032919061031b565b338282816000908161004491906105b4565b50806001908161005491906105b4565b505050600073ffffffffffffffffffffffffffffffffffffffff168173ffffffffffffffffffffffffffffffffffffffff16036100c95760006040517f1e4fbdf70000000000000000000000000000000000000000000000000000000081526004016100c091906106c7565b60405180910390fd5b6100d8816100e060201b60201c565b5050506106e2565b6000600b60009054906101000a900473ffffffffffffffffffffffffffffffffffffffff16905081600b60006101000a81548173ffffffffffffffffffffffffffffffffffffffff021916908373ffffffffffffffffffffffffffffffffffffffff1602179055508173ffffffffffffffffffffffffffffffffffffffff168173ffffffffffffffffffffffffffffffffffffffff167f8be0079c531659141344cd1fd0a4f28419497f9722a3daafe3b4186f6b6457e060405160405180910390a35050565b6000604051905090565b600080fd5b600080fd5b600080fd5b600080fd5b6000601f19601f8301169050919050565b7f4e487b7100000000000000000000000000000000000000000000000000000000600052604160045260246000fd5b61020d826101c4565b810181811067ffffffffffffffff8211171561022c5761022b6101d5565b5b80604052505050565b600061023f6101a6565b905061024b8282610204565b919050565b600067ffffffffffffffff82111561026b5761026a6101d5565b5b610274826101c4565b9050602081019050919050565b60005b8381101561029f578082015181840152602081019050610284565b60008484015250505050565b60006102be6102b984610250565b610235565b9050828152602081018484840111156102da576102d96101bf565b5b6102e5848285610281565b509392505050565b600082601f830112610302576103016101ba565b5b81516103128482602086016102ab565b91505092915050565b60008060408385031215610332576103316101b0565b5b600083015167ffffffffffffffff8111156103505761034f6101b5565b5b61035c858286016102ed565b925050602083015167ffffffffffffffff81111561037d5761037c6101b5565b5b610389858286016102ed565b9150509250929050565b600081519050919050565b7f4e487b7100000000000000000000000000000000000000000000000000000000600052602260045260246000fd5b600060028204905060018216806103e557607f821691505b6020821081036103f8576103f761039e565b5b50919050565b60008190508160005260206000209050919050565b60006020601f8301049050919050565b600082821b905092915050565b6000600883026104607fffffffffffffffffffffffffffffffffffffffffffffffffffffffffffffffff82610423565b61046a8683610423565b95508019841693508086168417925050509392505050565b6000819050919050565b6000819050919050565b60006104b16104ac6104a784610482565b61048c565b610482565b9050919050565b6000819050919050565b6104cb83610496565b6104df6104d7826104b8565b848454610430565b825550505050565b600090565b6104f46104e7565b6104ff8184846104c2565b505050565b5b81811015610523576105186000826104ec565b600181019050610505565b5050565b601f82111561056857610539816103fe565b61054284610413565b81016020851015610551578190505b61056561055d85610413565b830182610504565b50505b505050565b600082821c905092915050565b600061058b6000198460080261056d565b1980831691505092915050565b60006105a4838361057a565b9150826002028217905092915050565b6105bd82610393565b67ffffffffffffffff8111156105d6576105d56101d5565b5b6105e082546103cd565b6105eb828285610527565b600060209050601f83116001811461061e576000841561060c578287015190505b6106168582610598565b86555061067e565b601f19841661062c866103fe565b60005b828110156106545784890151825560018201915060208501945060208101905061062f565b86831015610671578489015161066d601f89168261057a565b8355505b6001600288020188555050505b505050505050565b600073ffffffffffffffffffffffffffffffffffffffff82169050919050565b60006106b182610686565b9050919050565b6106c1816106a6565b82525050565b60006020820190506106dc60008301846106b8565b92915050565b612cec806106f16000396000f3fe608060405234801561001057600080fd5b50600436106101425760003560e01c80636352211e116100b8578063a22cb4651161007c578063a22cb46514610375578063b88d4fde14610391578063c020a547146103ad578063c87b56dd146103cb578063e985e9c5146103fb578063f2fde38b1461042b57610142565b80636352211e146102cf57806370a08231146102ff578063715018a61461032f5780638da5cb5b1461033957806395d89b411461035757610142565b806323b872dd1161010a57806323b872dd146101ff5780632f745c591461021b57806340d097c31461024b57806342842e0e1461026757806342966c68146102835780634f6ccce71461029f57610142565b806301ffc9a71461014757806306fdde0314610177578063081812fc14610195578063095ea7b3146101c557806318160ddd146101e1575b600080fd5b610161600480360381019061015c919061217a565b610447565b60405161016e91906121c2565b60405180910390f35b61017f610459565b60405161018c919061226d565b60405180910390f35b6101af60048036038101906101aa91906122c5565b6104eb565b6040516101bc9190612333565b60405180910390f35b6101df60048036038101906101da919061237a565b610507565b005b6101e961051d565b6040516101f691906123c9565b60405180910390f35b610219600480360381019061021491906123e4565b61052a565b005b6102356004803603810190610230919061237a565b61062c565b60405161024291906123c9565b60405180910390f35b61026560048036038101906102609190612437565b6106d5565b005b610281600480360381019061027c91906123e4565b610720565b005b61029d600480360381019061029891906122c5565b610740565b005b6102b960048036038101906102b491906122c5565b610757565b6040516102c691906123c9565b60405180910390f35b6102e960048036038101906102e491906122c5565b6107cd565b6040516102f69190612333565b60405180910390f35b61031960048036038101906103149190612437565b6107df565b60405161032691906123c9565b60405180910390f35b610337610899565b005b6103416108ad565b60405161034e9190612333565b60405180910390f35b61035f6108d7565b60405161036c919061226d565b60405180910390f35b61038f600480360381019061038a9190612490565b610969565b005b6103ab60048036038101906103a69190612605565b61097f565b005b6103b56109a4565b6040516103c2919061226d565b60405180910390f35b6103e560048036038101906103e091906122c5565b6109c0565b6040516103f2919061226d565b60405180910390f35b61041560048036038101906104109190612688565b6109d2565b60405161042291906121c2565b60405180910390f35b61044560048036038101906104409190612437565b610a66565b005b600061045282610aec565b9050919050565b606060008054610468906126f7565b80601f0160208091040260200160405190810160405280929190818152602001828054610494906126f7565b80156104e15780601f106104b6576101008083540402835291602001916104e1565b820191906000526020600020905b8154815290600101906020018083116104c457829003601f168201915b5050505050905090565b60006104f682610b4d565b5061050082610bd5565b9050919050565b6105198282610514610c12565b610c1a565b5050565b6000600880549050905090565b600073ffffffffffffffffffffffffffffffffffffffff168273ffffffffffffffffffffffffffffffffffffffff160361059c5760006040517f64a0ae920000000000000000000000000000000000000000000000000000000081526004016105939190612333565b60405180910390fd5b60006105b083836105ab610c12565b610c2c565b90508373ffffffffffffffffffffffffffffffffffffffff168173ffffffffffffffffffffffffffffffffffffffff1614610626578382826040517f64283d7b00000000000000000000000000000000000000000000000000000000815260040161061d93929190612728565b60405180910390fd5b50505050565b6000610637836107df565b821061067c5782826040517fa57d13dc00000000000000000000000000000000000000000000000000000000815260040161067392919061275f565b60405180910390fd5b600660008473ffffffffffffffffffffffffffffffffffffffff1673ffffffffffffffffffffffffffffffffffffffff168152602001908152602001600020600083815260200190815260200160002054905092915050565b6000600c60008154809291906106ea906127b7565b9190505590506106fa8282610c42565b61071c81604051806060016040528060358152602001612c8260359139610c60565b5050565b61073b8383836040518060200160405280600081525061097f565b505050565b61075360008261074e610c12565b610c2c565b5050565b600061076161051d565b82106107a7576000826040517fa57d13dc00000000000000000000000000000000000000000000000000000000815260040161079e92919061275f565b60405180910390fd5b600882815481106107bb576107ba6127ff565b5b90600052602060002001549050919050565b60006107d882610b4d565b9050919050565b60008073ffffffffffffffffffffffffffffffffffffffff168273ffffffffffffffffffffffffffffffffffffffff16036108525760006040517f89c62b640000000000000000000000000000000000000000000000000000000081526004016108499190612333565b60405180910390fd5b600360008373ffffffffffffffffffffffffffffffffffffffff1673ffffffffffffffffffffffffffffffffffffffff168152602001908152602001600020549050919050565b6108a1610cbc565b6108ab6000610d43565b565b6000600b60009054906101000a900473ffffffffffffffffffffffffffffffffffffffff16905090565b6060600180546108e6906126f7565b80601f0160208091040260200160405190810160405280929190818152602001828054610912906126f7565b801561095f5780601f106109345761010080835404028352916020019161095f565b820191906000526020600020905b81548152906001019060200180831161094257829003601f168201915b5050505050905090565b61097b610974610c12565b8383610e09565b5050565b61098a84848461052a565b61099e610995610c12565b85858585610f78565b50505050565b604051806060016040528060358152602001612c826035913981565b60606109cb82611129565b9050919050565b6000600560008473ffffffffffffffffffffffffffffffffffffffff1673ffffffffffffffffffffffffffffffffffffffff16815260200190815260200160002060008373ffffffffffffffffffffffffffffffffffffffff1673ffffffffffffffffffffffffffffffffffffffff16815260200190815260200160002060009054906101000a900460ff16905092915050565b610a6e610cbc565b600073ffffffffffffffffffffffffffffffffffffffff168173ffffffffffffffffffffffffffffffffffffffff1603610ae05760006040517f1e4fbdf7000000000000000000000000000000000000000000000000000000008152600401610ad79190612333565b60405180910390fd5b610ae981610d43565b50565b6000634906490660e01b7bffffffffffffffffffffffffffffffffffffffffffffffffffffffff1916827bffffffffffffffffffffffffffffffffffffffffffffffffffffffff19161480610b465750610b458261123c565b5b9050919050565b600080610b59836112b6565b9050600073ffffffffffffffffffffffffffffffffffffffff168173ffffffffffffffffffffffffffffffffffffffff1603610bcc57826040517f7e273289000000000000000000000000000000000000000000000000000000008152600401610bc391906123c9565b60405180910390fd5b80915050919050565b60006004600083815260200190815260200160002060009054906101000a900473ffffffffffffffffffffffffffffffffffffffff169050919050565b600033905090565b610c2783838360016112f3565b505050565b6000610c398484846114b8565b90509392505050565b610c5c8282604051806020016040528060008152506115d5565b5050565b80600a60008481526020019081526020016000209081610c8091906129da565b507ff8e1a15aba9398e019f0b49df1a4fde98ee17ae345cb5f6b5e2c27f5033e8ce782604051610cb091906123c9565b60405180910390a15050565b610cc4610c12565b73ffffffffffffffffffffffffffffffffffffffff16610ce26108ad565b73ffffffffffffffffffffffffffffffffffffffff1614610d4157610d05610c12565b6040517f118cdaa7000000000000000000000000000000000000000000000000000000008152600401610d389190612333565b60405180910390fd5b565b6000600b60009054906101000a900473ffffffffffffffffffffffffffffffffffffffff16905081600b60006101000a81548173ffffffffffffffffffffffffffffffffffffffff021916908373ffffffffffffffffffffffffffffffffffffffff1602179055508173ffffffffffffffffffffffffffffffffffffffff168173ffffffffffffffffffffffffffffffffffffffff167f8be0079c531659141344cd1fd0a4f28419497f9722a3daafe3b4186f6b6457e060405160405180910390a35050565b600073ffffffffffffffffffffffffffffffffffffffff168273ffffffffffffffffffffffffffffffffffffffff1603610e7a57816040517f5b08ba18000000000000000000000000000000000000000000000000000000008152600401610e719190612333565b60405180910390fd5b80600560008573ffffffffffffffffffffffffffffffffffffffff1673ffffffffffffffffffffffffffffffffffffffff16815260200190815260200160002060008473ffffffffffffffffffffffffffffffffffffffff1673ffffffffffffffffffffffffffffffffffffffff16815260200190815260200160002060006101000a81548160ff0219169083151502179055508173ffffffffffffffffffffffffffffffffffffffff168373ffffffffffffffffffffffffffffffffffffffff167f17307eab39ab6107e8899845ad3d59bd9653f200f220920489ca2b5937696c3183604051610f6b91906121c2565b60405180910390a3505050565b60008373ffffffffffffffffffffffffffffffffffffffff163b1115611122578273ffffffffffffffffffffffffffffffffffffffff1663150b7a02868685856040518563ffffffff1660e01b8152600401610fd79493929190612b01565b6020604051808303816000875af192505050801561101357506040513d601f19601f820116820180604052508101906110109190612b62565b60015b611097573d8060008114611043576040519150601f19603f3d011682016040523d82523d6000602084013e611048565b606091505b50600081510361108f57836040517f64a0ae920000000000000000000000000000000000000000000000000000000081526004016110869190612333565b60405180910390fd5b805181602001fd5b63150b7a0260e01b7bffffffffffffffffffffffffffffffffffffffffffffffffffffffff1916817bffffffffffffffffffffffffffffffffffffffffffffffffffffffff19161461112057836040517f64a0ae920000000000000000000000000000000000000000000000000000000081526004016111179190612333565b60405180910390fd5b505b5050505050565b606061113482610b4d565b506000600a60008481526020019081526020016000208054611155906126f7565b80601f0160208091040260200160405190810160405280929190818152602001828054611181906126f7565b80156111ce5780601f106111a3576101008083540402835291602001916111ce565b820191906000526020600020905b8154815290600101906020018083116111b157829003601f168201915b5050505050905060006111df6115f9565b905060008151036111f4578192505050611237565b600082511115611229578082604051602001611211929190612bcb565b60405160208183030381529060405292505050611237565b61123284611610565b925050505b919050565b60007f780e9d63000000000000000000000000000000000000000000000000000000007bffffffffffffffffffffffffffffffffffffffffffffffffffffffff1916827bffffffffffffffffffffffffffffffffffffffffffffffffffffffff191614806112af57506112ae82611679565b5b9050919050565b60006002600083815260200190815260200160002060009054906101000a900473ffffffffffffffffffffffffffffffffffffffff169050919050565b808061132c5750600073ffffffffffffffffffffffffffffffffffffffff168273ffffffffffffffffffffffffffffffffffffffff1614155b1561146057600061133c84610b4d565b9050600073ffffffffffffffffffffffffffffffffffffffff168373ffffffffffffffffffffffffffffffffffffffff16141580156113a757508273ffffffffffffffffffffffffffffffffffffffff168173ffffffffffffffffffffffffffffffffffffffff1614155b80156113ba57506113b881846109d2565b155b156113fc57826040517fa9fbf51f0000000000000000000000000000000000000000000000000000000081526004016113f39190612333565b60405180910390fd5b811561145e57838573ffffffffffffffffffffffffffffffffffffffff168273ffffffffffffffffffffffffffffffffffffffff167f8c5be1e5ebec7d5bd14f71427d1e84f3dd0314c0f7b2291e5b200ac8c7c3b92560405160405180910390a45b505b836004600085815260200190815260200160002060006101000a81548173ffffffffffffffffffffffffffffffffffffffff021916908373ffffffffffffffffffffffffffffffffffffffff16021790555050505050565b6000806114c685858561175b565b9050600073ffffffffffffffffffffffffffffffffffffffff168173ffffffffffffffffffffffffffffffffffffffff160361150a5761150584611975565b611549565b8473ffffffffffffffffffffffffffffffffffffffff168173ffffffffffffffffffffffffffffffffffffffff16146115485761154781856119be565b5b5b600073ffffffffffffffffffffffffffffffffffffffff168573ffffffffffffffffffffffffffffffffffffffff160361158b5761158684611aa9565b6115ca565b8473ffffffffffffffffffffffffffffffffffffffff168173ffffffffffffffffffffffffffffffffffffffff16146115c9576115c88585611b7a565b5b5b809150509392505050565b6115df8383611c05565b6115f46115ea610c12565b6000858585610f78565b505050565b606060405180602001604052806000815250905090565b606061161b82610b4d565b5060006116266115f9565b905060008151116116465760405180602001604052806000815250611671565b8061165084611cfe565b604051602001611661929190612bcb565b6040516020818303038152906040525b915050919050565b60007f80ac58cd000000000000000000000000000000000000000000000000000000007bffffffffffffffffffffffffffffffffffffffffffffffffffffffff1916827bffffffffffffffffffffffffffffffffffffffffffffffffffffffff1916148061174457507f5b5e139f000000000000000000000000000000000000000000000000000000007bffffffffffffffffffffffffffffffffffffffffffffffffffffffff1916827bffffffffffffffffffffffffffffffffffffffffffffffffffffffff1916145b80611754575061175382611dcc565b5b9050919050565b600080611767846112b6565b9050600073ffffffffffffffffffffffffffffffffffffffff168373ffffffffffffffffffffffffffffffffffffffff16146117a9576117a8818486611e36565b5b600073ffffffffffffffffffffffffffffffffffffffff168173ffffffffffffffffffffffffffffffffffffffff161461183a576117eb6000856000806112f3565b6001600360008373ffffffffffffffffffffffffffffffffffffffff1673ffffffffffffffffffffffffffffffffffffffff168152602001908152602001600020600082825403925050819055505b600073ffffffffffffffffffffffffffffffffffffffff168573ffffffffffffffffffffffffffffffffffffffff16146118bd576001600360008773ffffffffffffffffffffffffffffffffffffffff1673ffffffffffffffffffffffffffffffffffffffff168152602001908152602001600020600082825401925050819055505b846002600086815260200190815260200160002060006101000a81548173ffffffffffffffffffffffffffffffffffffffff021916908373ffffffffffffffffffffffffffffffffffffffff160217905550838573ffffffffffffffffffffffffffffffffffffffff168273ffffffffffffffffffffffffffffffffffffffff167fddf252ad1be2c89b69c2b068fc378daa952ba7f163c4a11628f55a4df523b3ef60405160405180910390a4809150509392505050565b6008805490506009600083815260200190815260200160002081905550600881908060018154018082558091505060019003906000526020600020016000909190919091505550565b60006119c9836107df565b90506000600760008481526020019081526020016000205490506000600660008673ffffffffffffffffffffffffffffffffffffffff1673ffffffffffffffffffffffffffffffffffffffff1681526020019081526020016000209050828214611a755760008160008581526020019081526020016000205490508082600085815260200190815260200160002081905550826007600083815260200190815260200160002081905550505b6007600085815260200190815260200160002060009055806000848152602001908152602001600020600090555050505050565b60006001600880549050611abd9190612bef565b9050600060096000848152602001908152602001600020549050600060088381548110611aed57611aec6127ff565b5b906000526020600020015490508060088381548110611b0f57611b0e6127ff565b5b906000526020600020018190555081600960008381526020019081526020016000208190555060096000858152602001908152602001600020600090556008805480611b5e57611b5d612c23565b5b6001900381819060005260206000200160009055905550505050565b60006001611b87846107df565b611b919190612bef565b905081600660008573ffffffffffffffffffffffffffffffffffffffff1673ffffffffffffffffffffffffffffffffffffffff168152602001908152602001600020600083815260200190815260200160002081905550806007600084815260200190815260200160002081905550505050565b600073ffffffffffffffffffffffffffffffffffffffff168273ffffffffffffffffffffffffffffffffffffffff1603611c775760006040517f64a0ae92000000000000000000000000000000000000000000000000000000008152600401611c6e9190612333565b60405180910390fd5b6000611c8583836000610c2c565b9050600073ffffffffffffffffffffffffffffffffffffffff168173ffffffffffffffffffffffffffffffffffffffff1614611cf95760006040517f73c6ac6e000000000000000000000000000000000000000000000000000000008152600401611cf09190612333565b60405180910390fd5b505050565b606060006001611d0d84611efa565b01905060008167ffffffffffffffff811115611d2c57611d2b6124da565b5b6040519080825280601f01601f191660200182016040528015611d5e5781602001600182028036833780820191505090505b509050600082602001820190505b600115611dc1578080600190039150507f3031323334353637383961626364656600000000000000000000000000000000600a86061a8153600a8581611db557611db4612c52565b5b04945060008503611d6c575b819350505050919050565b60007f01ffc9a7000000000000000000000000000000000000000000000000000000007bffffffffffffffffffffffffffffffffffffffffffffffffffffffff1916827bffffffffffffffffffffffffffffffffffffffffffffffffffffffff1916149050919050565b611e4183838361204d565b611ef557600073ffffffffffffffffffffffffffffffffffffffff168373ffffffffffffffffffffffffffffffffffffffff1603611eb657806040517f7e273289000000000000000000000000000000000000000000000000000000008152600401611ead91906123c9565b60405180910390fd5b81816040517f177e802f000000000000000000000000000000000000000000000000000000008152600401611eec92919061275f565b60405180910390fd5b505050565b600080600090507a184f03e93ff9f4daa797ed6e38ed64bf6a1f0100000000000000008310611f58577a184f03e93ff9f4daa797ed6e38ed64bf6a1f0100000000000000008381611f4e57611f4d612c52565b5b0492506040810190505b6d04ee2d6d415b85acef81000000008310611f95576d04ee2d6d415b85acef81000000008381611f8b57611f8a612c52565b5b0492506020810190505b662386f26fc100008310611fc457662386f26fc100008381611fba57611fb9612c52565b5b0492506010810190505b6305f5e1008310611fed576305f5e1008381611fe357611fe2612c52565b5b0492506008810190505b612710831061201257612710838161200857612007612c52565b5b0492506004810190505b60648310612035576064838161202b5761202a612c52565b5b0492506002810190505b600a8310612044576001810190505b80915050919050565b60008073ffffffffffffffffffffffffffffffffffffffff168373ffffffffffffffffffffffffffffffffffffffff161415801561210557508273ffffffffffffffffffffffffffffffffffffffff168473ffffffffffffffffffffffffffffffffffffffff1614806120c657506120c584846109d2565b5b8061210457508273ffffffffffffffffffffffffffffffffffffffff166120ec83610bd5565b73ffffffffffffffffffffffffffffffffffffffff16145b5b90509392505050565b6000604051905090565b600080fd5b600080fd5b60007fffffffff0000000000000000000000000000000000000000000000000000000082169050919050565b61215781612122565b811461216257600080fd5b50565b6000813590506121748161214e565b92915050565b6000602082840312156121905761218f612118565b5b600061219e84828501612165565b91505092915050565b60008115159050919050565b6121bc816121a7565b82525050565b60006020820190506121d760008301846121b3565b92915050565b600081519050919050565b600082825260208201905092915050565b60005b838110156122175780820151818401526020810190506121fc565b60008484015250505050565b6000601f19601f8301169050919050565b600061223f826121dd565b61224981856121e8565b93506122598185602086016121f9565b61226281612223565b840191505092915050565b600060208201905081810360008301526122878184612234565b905092915050565b6000819050919050565b6122a28161228f565b81146122ad57600080fd5b50565b6000813590506122bf81612299565b92915050565b6000602082840312156122db576122da612118565b5b60006122e9848285016122b0565b91505092915050565b600073ffffffffffffffffffffffffffffffffffffffff82169050919050565b600061231d826122f2565b9050919050565b61232d81612312565b82525050565b60006020820190506123486000830184612324565b92915050565b61235781612312565b811461236257600080fd5b50565b6000813590506123748161234e565b92915050565b6000806040838503121561239157612390612118565b5b600061239f85828601612365565b92505060206123b0858286016122b0565b9150509250929050565b6123c38161228f565b82525050565b60006020820190506123de60008301846123ba565b92915050565b6000806000606084860312156123fd576123fc612118565b5b600061240b86828701612365565b935050602061241c86828701612365565b925050604061242d868287016122b0565b9150509250925092565b60006020828403121561244d5761244c612118565b5b600061245b84828501612365565b91505092915050565b61246d816121a7565b811461247857600080fd5b50565b60008135905061248a81612464565b92915050565b600080604083850312156124a7576124a6612118565b5b60006124b585828601612365565b92505060206124c68582860161247b565b9150509250929050565b600080fd5b600080fd5b7f4e487b7100000000000000000000000000000000000000000000000000000000600052604160045260246000fd5b61251282612223565b810181811067ffffffffffffffff82111715612531576125306124da565b5b80604052505050565b600061254461210e565b90506125508282612509565b919050565b600067ffffffffffffffff8211156125705761256f6124da565b5b61257982612223565b9050602081019050919050565b82818337600083830152505050565b60006125a86125a384612555565b61253a565b9050828152602081018484840111156125c4576125c36124d5565b5b6125cf848285612586565b509392505050565b600082601f8301126125ec576125eb6124d0565b5b81356125fc848260208601612595565b91505092915050565b6000806000806080858703121561261f5761261e612118565b5b600061262d87828801612365565b945050602061263e87828801612365565b935050604061264f878288016122b0565b925050606085013567ffffffffffffffff8111156126705761266f61211d565b5b61267c878288016125d7565b91505092959194509250565b6000806040838503121561269f5761269e612118565b5b60006126ad85828601612365565b92505060206126be85828601612365565b9150509250929050565b7f4e487b7100000000000000000000000000000000000000000000000000000000600052602260045260246000fd5b6000600282049050600182168061270f57607f821691505b602082108103612722576127216126c8565b5b50919050565b600060608201905061273d6000830186612324565b61274a60208301856123ba565b6127576040830184612324565b949350505050565b60006040820190506127746000830185612324565b61278160208301846123ba565b9392505050565b7f4e487b7100000000000000000000000000000000000000000000000000000000600052601160045260246000fd5b60006127c28261228f565b91507fffffffffffffffffffffffffffffffffffffffffffffffffffffffffffffffff82036127f4576127f3612788565b5b600182019050919050565b7f4e487b7100000000000000000000000000000000000000000000000000000000600052603260045260246000fd5b60008190508160005260206000209050919050565b60006020601f8301049050919050565b600082821b905092915050565b6000600883026128907fffffffffffffffffffffffffffffffffffffffffffffffffffffffffffffffff82612853565b61289a8683612853565b95508019841693508086168417925050509392505050565b6000819050919050565b60006128d76128d26128cd8461228f565b6128b2565b61228f565b9050919050565b6000819050919050565b6128f1836128bc565b6129056128fd826128de565b848454612860565b825550505050565b600090565b61291a61290d565b6129258184846128e8565b505050565b5b818110156129495761293e600082612912565b60018101905061292b565b5050565b601f82111561298e5761295f8161282e565b61296884612843565b81016020851015612977578190505b61298b61298385612843565b83018261292a565b50505b505050565b600082821c905092915050565b60006129b160001984600802612993565b1980831691505092915050565b60006129ca83836129a0565b9150826002028217905092915050565b6129e3826121dd565b67ffffffffffffffff8111156129fc576129fb6124da565b5b612a0682546126f7565b612a1182828561294d565b600060209050601f831160018114612a445760008415612a32578287015190505b612a3c85826129be565b865550612aa4565b601f198416612a528661282e565b60005b82811015612a7a57848901518255600182019150602085019450602081019050612a55565b86831015612a975784890151612a93601f8916826129a0565b8355505b6001600288020188555050505b505050505050565b600081519050919050565b600082825260208201905092915050565b6000612ad382612aac565b612add8185612ab7565b9350612aed8185602086016121f9565b612af681612223565b840191505092915050565b6000608082019050612b166000830187612324565b612b236020830186612324565b612b3060408301856123ba565b8181036060830152612b428184612ac8565b905095945050505050565b600081519050612b5c8161214e565b92915050565b600060208284031215612b7857612b77612118565b5b6000612b8684828501612b4d565b91505092915050565b600081905092915050565b6000612ba5826121dd565b612baf8185612b8f565b9350612bbf8185602086016121f9565b80840191505092915050565b6000612bd78285612b9a565b9150612be38284612b9a565b91508190509392505050565b6000612bfa8261228f565b9150612c058361228f565b9250828203905081811115612c1d57612c1c612788565b5b92915050565b7f4e487b7100000000000000000000000000000000000000000000000000000000600052603160045260246000fd5b7f4e487b7100000000000000000000000000000000000000000000000000000000600052601260045260246000fdfe697066733a2f2f516d61526d5a33634347443146645250346a70467261636d4165334b4a4159526b465a3769765175523333545546a2646970667358221220335aa126d00be47e1d851a27eb0db1aba02551ae31fde5a473ea7d858750278764736f6c634300081c0033",
  "linkReferences": {},
  "deployedLinkReferences": {}
}